{
  "address": "0xc6e7DF5E7b4f2A278906862b61205850344D4e7d",
  "abi": [
    {
      "inputs": [
        {
          "internalType": "address",
          "name": "_intuitToken",
          "type": "address"
        }
      ],
      "stateMutability": "nonpayable",
      "type": "constructor"
    },
    {
      "anonymous": false,
      "inputs": [
        {
          "indexed": true,
          "internalType": "address",
          "name": "swapper",
          "type": "address"
        },
        {
          "indexed": false,
          "internalType": "uint256",
          "name": "intuitInput",
          "type": "uint256"
        },
        {
          "indexed": false,
          "internalType": "uint256",
          "name": "ttrustOutput",
          "type": "uint256"
        }
      ],
      "name": "IntuitToTtrustSwap",
      "type": "event"
    },
    {
      "anonymous": false,
      "inputs": [
        {
          "indexed": true,
          "internalType": "address",
          "name": "provider",
          "type": "address"
        },
        {
          "indexed": false,
          "internalType": "uint256",
          "name": "ttrustAmount",
          "type": "uint256"
        },
        {
          "indexed": false,
          "internalType": "uint256",
          "name": "intuitAmount",
          "type": "uint256"
        },
        {
          "indexed": false,
          "internalType": "uint256",
          "name": "liquidityMinted",
          "type": "uint256"
        }
      ],
      "name": "LiquidityAdded",
      "type": "event"
    },
    {
      "anonymous": false,
      "inputs": [
        {
          "indexed": true,
          "internalType": "address",
          "name": "provider",
          "type": "address"
        },
        {
          "indexed": false,
          "internalType": "uint256",
          "name": "ttrustAmount",
          "type": "uint256"
        },
        {
          "indexed": false,
          "internalType": "uint256",
          "name": "intuitAmount",
          "type": "uint256"
        },
        {
          "indexed": false,
          "internalType": "uint256",
          "name": "liquidityBurned",
          "type": "uint256"
        }
      ],
      "name": "LiquidityRemoved",
      "type": "event"
    },
    {
      "anonymous": false,
      "inputs": [
        {
          "indexed": true,
          "internalType": "address",
          "name": "swapper",
          "type": "address"
        },
        {
          "indexed": false,
          "internalType": "uint256",
          "name": "ttrustInput",
          "type": "uint256"
        },
        {
          "indexed": false,
          "internalType": "uint256",
          "name": "intuitOutput",
          "type": "uint256"
        }
      ],
      "name": "TtrustToIntuitSwap",
      "type": "event"
    },
    {
      "inputs": [],
      "name": "FEE_DENOMINATOR",
      "outputs": [
        {
          "internalType": "uint256",
          "name": "",
          "type": "uint256"
        }
      ],
      "stateMutability": "view",
      "type": "function"
    },
    {
      "inputs": [],
      "name": "FEE_NUMERATOR",
      "outputs": [
        {
          "internalType": "uint256",
          "name": "",
          "type": "uint256"
        }
      ],
      "stateMutability": "view",
      "type": "function"
    },
    {
      "inputs": [
        {
          "internalType": "uint256",
          "name": "intuitAmount",
          "type": "uint256"
        }
      ],
      "name": "addLiquidity",
      "outputs": [
        {
          "internalType": "uint256",
          "name": "",
          "type": "uint256"
        }
      ],
      "stateMutability": "payable",
      "type": "function"
    },
    {
      "inputs": [
        {
          "internalType": "uint256",
          "name": "inputAmount",
          "type": "uint256"
        },
        {
          "internalType": "uint256",
          "name": "inputReserve",
          "type": "uint256"
        },
        {
          "internalType": "uint256",
          "name": "outputReserve",
          "type": "uint256"
        }
      ],
      "name": "getAmountOut",
      "outputs": [
        {
          "internalType": "uint256",
          "name": "",
          "type": "uint256"
        }
      ],
      "stateMutability": "pure",
      "type": "function"
    },
    {
      "inputs": [],
      "name": "getReserves",
      "outputs": [
        {
          "internalType": "uint256",
          "name": "ttrustReserve",
          "type": "uint256"
        },
        {
          "internalType": "uint256",
          "name": "intuitReserve",
          "type": "uint256"
        }
      ],
      "stateMutability": "view",
      "type": "function"
    },
    {
      "inputs": [
        {
          "internalType": "address",
          "name": "user",
          "type": "address"
        }
      ],
      "name": "getUserLiquidity",
      "outputs": [
        {
          "internalType": "uint256",
          "name": "",
          "type": "uint256"
        }
      ],
      "stateMutability": "view",
      "type": "function"
    },
    {
      "inputs": [
        {
          "internalType": "uint256",
          "name": "intuitAmount",
          "type": "uint256"
        }
      ],
      "name": "init",
      "outputs": [
        {
          "internalType": "uint256",
          "name": "",
          "type": "uint256"
        }
      ],
      "stateMutability": "payable",
      "type": "function"
    },
    {
      "inputs": [],
      "name": "intuitToken",
      "outputs": [
        {
          "internalType": "contract Intuit",
          "name": "",
          "type": "address"
        }
      ],
      "stateMutability": "view",
      "type": "function"
    },
    {
      "inputs": [
        {
          "internalType": "address",
          "name": "",
          "type": "address"
        }
      ],
      "name": "liquidity",
      "outputs": [
        {
          "internalType": "uint256",
          "name": "",
          "type": "uint256"
        }
      ],
      "stateMutability": "view",
      "type": "function"
    },
    {
      "inputs": [
        {
          "internalType": "uint256",
          "name": "liquidityAmount",
          "type": "uint256"
        }
      ],
      "name": "removeLiquidity",
      "outputs": [
        {
          "internalType": "uint256",
          "name": "ttrustAmount",
          "type": "uint256"
        },
        {
          "internalType": "uint256",
          "name": "intuitAmount",
          "type": "uint256"
        }
      ],
      "stateMutability": "nonpayable",
      "type": "function"
    },
    {
      "inputs": [
        {
          "internalType": "uint256",
          "name": "intuitAmount",
          "type": "uint256"
        }
      ],
      "name": "swapIntuitForTtrust",
      "outputs": [
        {
          "internalType": "uint256",
          "name": "",
          "type": "uint256"
        }
      ],
      "stateMutability": "nonpayable",
      "type": "function"
    },
    {
      "inputs": [],
      "name": "swapTtrustForIntuit",
      "outputs": [
        {
          "internalType": "uint256",
          "name": "",
          "type": "uint256"
        }
      ],
      "stateMutability": "payable",
      "type": "function"
    },
    {
      "inputs": [],
      "name": "totalLiquidity",
      "outputs": [
        {
          "internalType": "uint256",
          "name": "",
          "type": "uint256"
        }
      ],
      "stateMutability": "view",
      "type": "function"
    }
  ],
  "transactionHash": "0x1e27cef508a9a465aadee17e3d5605740f984e3b0f399ca9e93647cc6f2fcbd7",
  "args": [
    "0x3Aa5ebB10DC797CAC828524e59A333d0A371443c"
  ],
  "numDeployments": 1,
  "solcInputHash": "ca1c0822d04d6b75fd515bdfdc9eb405",
  "bytecode": "0x60a060405234801561001057600080fd5b506040516116e23803806116e283398101604081905261002f9161009a565b6001600160a01b0381166100895760405162461bcd60e51b815260206004820152601a60248201527f4445583a20696e76616c696420746f6b656e2061646472657373000000000000604482015260640160405180910390fd5b6001600160a01b03166080526100ca565b6000602082840312156100ac57600080fd5b81516001600160a01b03811681146100c357600080fd5b9392505050565b6080516115b0610132600039600081816102470152818161034e0152818161043601528181610633015281816107c7015281816108c1015281816109c001528181610bc401528181610d6001528181610f42015281816110f8015261124a01526115b06000f3fe6080604052600436106100c15760003560e01c80639c8f9f231161007f578063c91b4a0e11610059578063c91b4a0e146101c9578063d73792a9146101e9578063dbbdd935146101ff578063dcc1673d1461023557600080fd5b80639c8f9f2314610169578063b7b0422d14610189578063b8c876b11461019c57600080fd5b8062d8d10f146100c6578063054d50d4146100e15780630902f1ac1461010157806315770f921461012b57806341cd47bf1461014157806351c6590a14610156575b600080fd5b6100ce610281565b6040519081526020015b60405180910390f35b3480156100ed57600080fd5b506100ce6100fc36600461141f565b610509565b34801561010d57600080fd5b5061011661060f565b604080519283526020830191909152016100d8565b34801561013757600080fd5b506100ce60005481565b34801561014d57600080fd5b506100ce600381565b6100ce61016436600461144b565b6106a6565b34801561017557600080fd5b5061011661018436600461144b565b610af8565b6100ce61019736600461144b565b610e3c565b3480156101a857600080fd5b506100ce6101b7366004611464565b60016020526000908152604090205481565b3480156101d557600080fd5b506100ce6101e436600461144b565b611047565b3480156101f557600080fd5b506100ce6103e881565b34801561020b57600080fd5b506100ce61021a366004611464565b6001600160a01b031660009081526001602052604090205490565b34801561024157600080fd5b506102697f000000000000000000000000000000000000000000000000000000000000000081565b6040516001600160a01b0390911681526020016100d8565b60008034116102d75760405162461bcd60e51b815260206004820152601960248201527f4445583a2063616e6e6f7420737761702030205454525553540000000000000060448201526064015b60405180910390fd5b600080541161031f5760405162461bcd60e51b81526020600482015260146024820152731111560e881b9bdd081a5b9a5d1a585b1a5e995960621b60448201526064016102ce565b600061032b34476114a3565b6040516370a0823160e01b81523060048201529091506000906001600160a01b037f000000000000000000000000000000000000000000000000000000000000000016906370a0823190602401602060405180830381865afa158015610395573d6000803e3d6000fd5b505050506040513d601f19601f820116820180604052508101906103b991906114bc565b905060006103c8348484610509565b90506000811161041a5760405162461bcd60e51b815260206004820152601f60248201527f4445583a20696e73756666696369656e74206f757470757420616d6f756e740060448201526064016102ce565b60405163a9059cbb60e01b8152336004820152602481018290527f00000000000000000000000000000000000000000000000000000000000000006001600160a01b03169063a9059cbb906044016020604051808303816000875af1158015610487573d6000803e3d6000fd5b505050506040513d601f19601f820116820180604052508101906104ab91906114d5565b6104c75760405162461bcd60e51b81526004016102ce906114f7565b604080513481526020810183905233917f8baa605a914875258a5fd6003a02dd0489525c5177a3fb453572a3702ec0fd98910160405180910390a29392505050565b600080841161055a5760405162461bcd60e51b815260206004820152601e60248201527f4445583a20696e73756666696369656e7420696e70757420616d6f756e74000060448201526064016102ce565b60008311801561056a5750600082115b6105b65760405162461bcd60e51b815260206004820152601b60248201527f4445583a20696e73756666696369656e74206c6971756964697479000000000060448201526064016102ce565b60006105c560036103e86114a3565b6105cf908661152e565b905060006105dd848361152e565b90506000826105ee6103e88861152e565b6105f89190611545565b90506106048183611558565b979650505050505050565b6040516370a0823160e01b8152306004820152600090819047906001600160a01b037f000000000000000000000000000000000000000000000000000000000000000016906370a0823190602401602060405180830381865afa15801561067a573d6000803e3d6000fd5b505050506040513d601f19601f8201168201806040525081019061069e91906114bc565b915091509091565b600080600054116107055760405162461bcd60e51b815260206004820152602360248201527f4445583a2075736520696e6974282920666f72206669727374206c697175696460448201526269747960e81b60648201526084016102ce565b6000341161074d5760405162461bcd60e51b81526020600482015260156024820152741111560e881b5d5cdd081cd95b99081515149554d5605a1b60448201526064016102ce565b600082116107985760405162461bcd60e51b81526020600482015260186024820152771111560e881b5d5cdd081c1c9bdd9a59194812539515525560421b60448201526064016102ce565b60006107a434476114a3565b6040516370a0823160e01b81523060048201529091506000906001600160a01b037f000000000000000000000000000000000000000000000000000000000000000016906370a0823190602401602060405180830381865afa15801561080e573d6000803e3d6000fd5b505050506040513d601f19601f8201168201806040525081019061083291906114bc565b9050600082610841833461152e565b61084b9190611558565b90508085101561089d5760405162461bcd60e51b815260206004820152601f60248201527f4445583a20696e73756666696369656e7420494e5455495420616d6f756e740060448201526064016102ce565b6040516323b872dd60e01b81523360048201523060248201526044810182905281907f00000000000000000000000000000000000000000000000000000000000000006001600160a01b0316906323b872dd906064016020604051808303816000875af1158015610912573d6000803e3d6000fd5b505050506040513d601f19601f8201168201806040525081019061093691906114d5565b6109525760405162461bcd60e51b81526004016102ce906114f7565b60008460005434610963919061152e565b61096d9190611558565b33600090815260016020526040812080549293508392909190610991908490611545565b92505081905550806000808282546109a99190611545565b909155505081871115610aab576001600160a01b037f00000000000000000000000000000000000000000000000000000000000000001663a9059cbb336109f0858b6114a3565b6040516001600160e01b031960e085901b1681526001600160a01b03909216600483015260248201526044016020604051808303816000875af1158015610a3b573d6000803e3d6000fd5b505050506040513d601f19601f82011682018060405250810190610a5f91906114d5565b610aab5760405162461bcd60e51b815260206004820152601960248201527f4445583a20494e5455495420726566756e64206661696c65640000000000000060448201526064016102ce565b604080513481526020810184905290810182905233907f64b83944e79c3ce8d4c297411de637c3e102d064677aac0c163976ebdcd6f50e9060600160405180910390a29695505050505050565b60008060008311610b4b5760405162461bcd60e51b815260206004820152601e60248201527f4445583a2063616e6e6f742072656d6f76652030206c6971756964697479000060448201526064016102ce565b33600090815260016020526040902054831115610baa5760405162461bcd60e51b815260206004820152601b60248201527f4445583a20696e73756666696369656e74206c6971756964697479000000000060448201526064016102ce565b6040516370a0823160e01b815230600482015247906000907f00000000000000000000000000000000000000000000000000000000000000006001600160a01b0316906370a0823190602401602060405180830381865afa158015610c13573d6000803e3d6000fd5b505050506040513d601f19601f82011682018060405250810190610c3791906114bc565b600054909150610c47838761152e565b610c519190611558565b600054909450610c61828761152e565b610c6b9190611558565b33600090815260016020526040812080549295508792909190610c8f9084906114a3565b9250508190555084600080828254610ca791906114a3565b9091555050604051600090339086908381818185875af1925050503d8060008114610cee576040519150601f19603f3d011682016040523d82523d6000602084013e610cf3565b606091505b5050905080610d445760405162461bcd60e51b815260206004820152601b60248201527f4445583a20545452555354207472616e73666572206661696c6564000000000060448201526064016102ce565b60405163a9059cbb60e01b8152336004820152602481018590527f00000000000000000000000000000000000000000000000000000000000000006001600160a01b03169063a9059cbb906044016020604051808303816000875af1158015610db1573d6000803e3d6000fd5b505050506040513d601f19601f82011682018060405250810190610dd591906114d5565b610df15760405162461bcd60e51b81526004016102ce906114f7565b604080518681526020810186905290810187905233907f1dc8bb69df2b8e91fbdcbfcf93d951b3f0000f085a95fe3f7946d6161439245d9060600160405180910390a2505050915091565b6000805415610e8d5760405162461bcd60e51b815260206004820152601860248201527f4445583a20616c726561647920696e697469616c697a6564000000000000000060448201526064016102ce565b60003411610ed55760405162461bcd60e51b81526020600482015260156024820152741111560e881b5d5cdd081cd95b99081515149554d5605a1b60448201526064016102ce565b60008211610f205760405162461bcd60e51b81526020600482015260186024820152771111560e881b5d5cdd081c1c9bdd9a59194812539515525560421b60448201526064016102ce565b6040516323b872dd60e01b8152336004820152306024820152604481018390527f00000000000000000000000000000000000000000000000000000000000000006001600160a01b0316906323b872dd906064016020604051808303816000875af1158015610f93573d6000803e3d6000fd5b505050506040513d601f19601f82011682018060405250810190610fb791906114d5565b610fd35760405162461bcd60e51b81526004016102ce906114f7565b6000610fe7610fe2843461152e565b6113b7565b6000818155338082526001602090815260409283902084905582513481529081018790529182018390529192507f64b83944e79c3ce8d4c297411de637c3e102d064677aac0c163976ebdcd6f50e9060600160405180910390a292915050565b60008082116110985760405162461bcd60e51b815260206004820152601960248201527f4445583a2063616e6e6f742073776170203020494e545549540000000000000060448201526064016102ce565b60008054116110e05760405162461bcd60e51b81526020600482015260146024820152731111560e881b9bdd081a5b9a5d1a585b1a5e995960621b60448201526064016102ce565b6040516370a0823160e01b81523060048201526000907f00000000000000000000000000000000000000000000000000000000000000006001600160a01b0316906370a0823190602401602060405180830381865afa158015611147573d6000803e3d6000fd5b505050506040513d601f19601f8201168201806040525081019061116b91906114bc565b905047600061117b858484610509565b9050600081116111cd5760405162461bcd60e51b815260206004820152601f60248201527f4445583a20696e73756666696369656e74206f757470757420616d6f756e740060448201526064016102ce565b818111156112285760405162461bcd60e51b815260206004820152602260248201527f4445583a20696e73756666696369656e7420545452555354206c697175696469604482015261747960f01b60648201526084016102ce565b6040516323b872dd60e01b8152336004820152306024820152604481018690527f00000000000000000000000000000000000000000000000000000000000000006001600160a01b0316906323b872dd906064016020604051808303816000875af115801561129b573d6000803e3d6000fd5b505050506040513d601f19601f820116820180604052508101906112bf91906114d5565b6112db5760405162461bcd60e51b81526004016102ce906114f7565b604051600090339083908381818185875af1925050503d806000811461131d576040519150601f19603f3d011682016040523d82523d6000602084013e611322565b606091505b50509050806113735760405162461bcd60e51b815260206004820152601b60248201527f4445583a20545452555354207472616e73666572206661696c6564000000000060448201526064016102ce565b604080518781526020810184905233917f06f22c4842399c3e1f01b96866722a69843ff3880e018799dc91acaadf6e1833910160405180910390a250949350505050565b6000816000036113c957506000919050565b600060026113d8846001611545565b6113e29190611558565b9050825b808210156114185750806002816113fd8187611558565b6114079190611545565b6114119190611558565b91506113e6565b9392505050565b60008060006060848603121561143457600080fd5b505081359360208301359350604090920135919050565b60006020828403121561145d57600080fd5b5035919050565b60006020828403121561147657600080fd5b81356001600160a01b038116811461141857600080fd5b634e487b7160e01b600052601160045260246000fd5b818103818111156114b6576114b661148d565b92915050565b6000602082840312156114ce57600080fd5b5051919050565b6000602082840312156114e757600080fd5b8151801515811461141857600080fd5b6020808252601b908201527f4445583a20494e54554954207472616e73666572206661696c65640000000000604082015260600190565b80820281158282048414176114b6576114b661148d565b808201808211156114b6576114b661148d565b60008261157557634e487b7160e01b600052601260045260246000fd5b50049056fea26469706673582212203f8ea9a8bab2f4e6b695d82078ae0615046bed9181afe848c3125b870622957164736f6c63430008140033",
  "devdoc": {
    "details": "Decentralized Exchange for TTRUST  INTUIT trading Uses constant product AMM formula with 0.3% fee",
    "kind": "dev",
    "methods": {
      "addLiquidity(uint256)": {
        "details": "Add liquidity to the pool"
      },
      "getAmountOut(uint256,uint256,uint256)": {
        "details": "Calculate output amount with 0.3% fee"
      },
      "getReserves()": {
        "details": "Get current reserves"
      },
      "getUserLiquidity(address)": {
        "details": "Get user's liquidity"
      },
      "init(uint256)": {
        "details": "Initialize DEX with 1:1 ratio",
        "params": {
          "intuitAmount": "Amount of INTUIT tokens to add"
        }
      },
      "removeLiquidity(uint256)": {
        "details": "Remove liquidity from the pool"
      },
      "swapIntuitForTtrust(uint256)": {
        "details": "Swap INTUIT for TTRUST"
      },
      "swapTtrustForIntuit()": {
        "details": "Swap TTRUST for INTUIT"
      }
    },
    "title": "IntuitDEX",
    "version": 1
  },
  "userdoc": {
    "kind": "user",
    "methods": {},
    "version": 1
  },
  "storageLayout": {
    "storage": [
      {
        "astId": 862,
        "contract": "contracts/IntuitDEX.sol:IntuitDEX",
        "label": "totalLiquidity",
        "offset": 0,
        "slot": "0",
        "type": "t_uint256"
      },
      {
        "astId": 866,
        "contract": "contracts/IntuitDEX.sol:IntuitDEX",
        "label": "liquidity",
        "offset": 0,
        "slot": "1",
        "type": "t_mapping(t_address,t_uint256)"
      }
    ],
    "types": {
      "t_address": {
        "encoding": "inplace",
        "label": "address",
        "numberOfBytes": "20"
      },
      "t_mapping(t_address,t_uint256)": {
        "encoding": "mapping",
        "key": "t_address",
        "label": "mapping(address => uint256)",
        "numberOfBytes": "32",
        "value": "t_uint256"
      },
      "t_uint256": {
        "encoding": "inplace",
        "label": "uint256",
        "numberOfBytes": "32"
      }
    }
  }
}