{
  "address": "0x59b670e9fA9D0A427751Af201D676719a970857b",
  "abi": [
    {
      "inputs": [
        {
          "internalType": "address",
          "name": "_intuitToken",
          "type": "address"
        }
      ],
      "stateMutability": "nonpayable",
      "type": "constructor"
    },
    {
      "anonymous": false,
      "inputs": [
        {
          "indexed": false,
          "internalType": "bool",
          "name": "success",
          "type": "bool"
        },
        {
          "indexed": false,
          "internalType": "uint256",
          "name": "totalStaked",
          "type": "uint256"
        }
      ],
      "name": "Execute",
      "type": "event"
    },
    {
      "anonymous": false,
      "inputs": [
        {
          "indexed": false,
          "internalType": "uint256",
          "name": "amount",
          "type": "uint256"
        }
      ],
      "name": "RewardPoolFunded",
      "type": "event"
    },
    {
      "anonymous": false,
      "inputs": [
        {
          "indexed": false,
          "internalType": "uint256",
          "name": "totalRewards",
          "type": "uint256"
        },
        {
          "indexed": false,
          "internalType": "uint256",
          "name": "totalStakers",
          "type": "uint256"
        }
      ],
      "name": "RewardsDistributed",
      "type": "event"
    },
    {
      "anonymous": false,
      "inputs": [
        {
          "indexed": true,
          "internalType": "address",
          "name": "staker",
          "type": "address"
        },
        {
          "indexed": false,
          "internalType": "uint256",
          "name": "amount",
          "type": "uint256"
        },
        {
          "indexed": false,
          "internalType": "uint256",
          "name": "timestamp",
          "type": "uint256"
        }
      ],
      "name": "Stake",
      "type": "event"
    },
    {
      "anonymous": false,
      "inputs": [
        {
          "indexed": true,
          "internalType": "address",
          "name": "staker",
          "type": "address"
        },
        {
          "indexed": false,
          "internalType": "uint256",
          "name": "amount",
          "type": "uint256"
        },
        {
          "indexed": false,
          "internalType": "uint256",
          "name": "fee",
          "type": "uint256"
        }
      ],
      "name": "Unstake",
      "type": "event"
    },
    {
      "anonymous": false,
      "inputs": [
        {
          "indexed": true,
          "internalType": "address",
          "name": "staker",
          "type": "address"
        },
        {
          "indexed": false,
          "internalType": "uint256",
          "name": "amount",
          "type": "uint256"
        }
      ],
      "name": "Withdraw",
      "type": "event"
    },
    {
      "inputs": [],
      "name": "EARLY_UNSTAKE_FEE",
      "outputs": [
        {
          "internalType": "uint256",
          "name": "",
          "type": "uint256"
        }
      ],
      "stateMutability": "view",
      "type": "function"
    },
    {
      "inputs": [],
      "name": "LOCK_PERIOD",
      "outputs": [
        {
          "internalType": "uint256",
          "name": "",
          "type": "uint256"
        }
      ],
      "stateMutability": "view",
      "type": "function"
    },
    {
      "inputs": [],
      "name": "REWARD_RATE",
      "outputs": [
        {
          "internalType": "uint256",
          "name": "",
          "type": "uint256"
        }
      ],
      "stateMutability": "view",
      "type": "function"
    },
    {
      "inputs": [],
      "name": "THRESHOLD",
      "outputs": [
        {
          "internalType": "uint256",
          "name": "",
          "type": "uint256"
        }
      ],
      "stateMutability": "view",
      "type": "function"
    },
    {
      "inputs": [
        {
          "internalType": "address",
          "name": "",
          "type": "address"
        }
      ],
      "name": "balances",
      "outputs": [
        {
          "internalType": "uint256",
          "name": "",
          "type": "uint256"
        }
      ],
      "stateMutability": "view",
      "type": "function"
    },
    {
      "inputs": [],
      "name": "claimRewards",
      "outputs": [],
      "stateMutability": "nonpayable",
      "type": "function"
    },
    {
      "inputs": [],
      "name": "deadline",
      "outputs": [
        {
          "internalType": "uint256",
          "name": "",
          "type": "uint256"
        }
      ],
      "stateMutability": "view",
      "type": "function"
    },
    {
      "inputs": [],
      "name": "execute",
      "outputs": [],
      "stateMutability": "nonpayable",
      "type": "function"
    },
    {
      "inputs": [
        {
          "internalType": "uint256",
          "name": "amount",
          "type": "uint256"
        }
      ],
      "name": "fundRewardPool",
      "outputs": [],
      "stateMutability": "nonpayable",
      "type": "function"
    },
    {
      "inputs": [],
      "name": "getStakingStatus",
      "outputs": [
        {
          "internalType": "uint256",
          "name": "currentStaked",
          "type": "uint256"
        },
        {
          "internalType": "uint256",
          "name": "thresholdAmount",
          "type": "uint256"
        },
        {
          "internalType": "uint256",
          "name": "timeRemaining",
          "type": "uint256"
        },
        {
          "internalType": "bool",
          "name": "isCompleted",
          "type": "bool"
        },
        {
          "internalType": "bool",
          "name": "withdrawalsOpen",
          "type": "bool"
        },
        {
          "internalType": "uint256",
          "name": "currentRewardPool",
          "type": "uint256"
        }
      ],
      "stateMutability": "view",
      "type": "function"
    },
    {
      "inputs": [
        {
          "internalType": "address",
          "name": "user",
          "type": "address"
        }
      ],
      "name": "getUserStakeInfo",
      "outputs": [
        {
          "internalType": "uint256",
          "name": "stakedAmount",
          "type": "uint256"
        },
        {
          "internalType": "uint256",
          "name": "stakeTime",
          "type": "uint256"
        },
        {
          "internalType": "uint256",
          "name": "pendingRewards",
          "type": "uint256"
        },
        {
          "internalType": "bool",
          "name": "canUnstakeWithoutFee",
          "type": "bool"
        }
      ],
      "stateMutability": "view",
      "type": "function"
    },
    {
      "inputs": [],
      "name": "intuitToken",
      "outputs": [
        {
          "internalType": "contract Intuit",
          "name": "",
          "type": "address"
        }
      ],
      "stateMutability": "view",
      "type": "function"
    },
    {
      "inputs": [],
      "name": "openForWithdraw",
      "outputs": [
        {
          "internalType": "bool",
          "name": "",
          "type": "bool"
        }
      ],
      "stateMutability": "view",
      "type": "function"
    },
    {
      "inputs": [],
      "name": "rewardPool",
      "outputs": [
        {
          "internalType": "uint256",
          "name": "",
          "type": "uint256"
        }
      ],
      "stateMutability": "view",
      "type": "function"
    },
    {
      "inputs": [
        {
          "internalType": "address",
          "name": "",
          "type": "address"
        }
      ],
      "name": "rewards",
      "outputs": [
        {
          "internalType": "uint256",
          "name": "",
          "type": "uint256"
        }
      ],
      "stateMutability": "view",
      "type": "function"
    },
    {
      "inputs": [
        {
          "internalType": "uint256",
          "name": "amount",
          "type": "uint256"
        }
      ],
      "name": "stake",
      "outputs": [],
      "stateMutability": "nonpayable",
      "type": "function"
    },
    {
      "inputs": [
        {
          "internalType": "address",
          "name": "",
          "type": "address"
        }
      ],
      "name": "stakeTimestamp",
      "outputs": [
        {
          "internalType": "uint256",
          "name": "",
          "type": "uint256"
        }
      ],
      "stateMutability": "view",
      "type": "function"
    },
    {
      "inputs": [],
      "name": "stakingCompleted",
      "outputs": [
        {
          "internalType": "bool",
          "name": "",
          "type": "bool"
        }
      ],
      "stateMutability": "view",
      "type": "function"
    },
    {
      "inputs": [],
      "name": "timeLeft",
      "outputs": [
        {
          "internalType": "uint256",
          "name": "",
          "type": "uint256"
        }
      ],
      "stateMutability": "view",
      "type": "function"
    },
    {
      "inputs": [],
      "name": "totalStaked",
      "outputs": [
        {
          "internalType": "uint256",
          "name": "",
          "type": "uint256"
        }
      ],
      "stateMutability": "view",
      "type": "function"
    },
    {
      "inputs": [
        {
          "internalType": "uint256",
          "name": "amount",
          "type": "uint256"
        }
      ],
      "name": "unstake",
      "outputs": [],
      "stateMutability": "nonpayable",
      "type": "function"
    },
    {
      "inputs": [],
      "name": "withdraw",
      "outputs": [],
      "stateMutability": "nonpayable",
      "type": "function"
    }
  ],
  "transactionHash": "0xddf17f0aaf61d4482f9dbadb17525151b2489963f03da499f6ba43f52ed1eeb5",
  "args": [
    "0x3Aa5ebB10DC797CAC828524e59A333d0A371443c"
  ],
  "numDeployments": 1,
  "solcInputHash": "f6b868a9fa6e25a062fd2266168ce170",
  "bytecode": "0x60a060405234801561001057600080fd5b5060405161126538038061126583398101604081905261002f916100b8565b6001600160a01b0381166100955760405162461bcd60e51b815260206004820152602360248201527f496e747569745374616b65723a20696e76616c696420746f6b656e206164647260448201526265737360e81b606482015260840160405180910390fd5b6001600160a01b0381166080526100af426203f4806100e8565b6000555061010f565b6000602082840312156100ca57600080fd5b81516001600160a01b03811681146100e157600080fd5b9392505050565b8082018082111561010957634e487b7160e01b600052601160045260246000fd5b92915050565b60805161111861014d600039600081816102fd0152818161037c0152818161063101528181610800015281816109db0152610cbf01526111186000f3fe608060405234801561001057600080fd5b50600436106101425760003560e01c806361461954116100b85780639876a6431161007c5780639876a64314610248578063a694fc3a1461026a578063c32d3ae21461027d578063cab9b8fb146102b2578063d67b74a0146102eb578063dcc1673d146102f857600080fd5b806361461954146101fd57806366666aa914610205578063702590771461020e578063785ffb371461022e578063817b1cd21461023f57600080fd5b806329dcb0cf1161010a57806329dcb0cf146101c15780632e17de78146101ca578063372500ab146101dd57806339efdf6b146101e55780633ccfd60b146101ed5780635997bb37146101f557600080fd5b80630700037d146101475780631300a6d11461017a5780631820cabb146101825780631d583e0d1461018c57806327e235e3146101a1575b600080fd5b610167610155366004610f65565b60056020526000908152604090205481565b6040519081526020015b60405180910390f35b610167610337565b61016762093a8081565b61019f61019a366004610f95565b61035a565b005b6101676101af366004610f65565b60036020526000908152604090205481565b61016760005481565b61019f6101d8366004610f95565b61049e565b61019f610702565b610167601481565b61019f6108c8565b610167607d81565b61019f610aa5565b61016760065481565b61016761021c366004610f65565b60046020526000908152604090205481565b61016769021e19e0c9bab240000081565b61016760015481565b60025461025a90610100900460ff1681565b6040519015158152602001610171565b61019f610278366004610f95565b610bd9565b61029061028b366004610f65565b610dd6565b6040805194855260208501939093529183015215156060820152608001610171565b6102ba610e74565b60408051968752602087019590955293850192909252151560608401521515608083015260a082015260c001610171565b60025461025a9060ff1681565b61031f7f000000000000000000000000000000000000000000000000000000000000000081565b6040516001600160a01b039091168152602001610171565b6000805442106103475750600090565b426000546103559190610fc4565b905090565b6040516323b872dd60e01b8152336004820152306024820152604481018290527f00000000000000000000000000000000000000000000000000000000000000006001600160a01b0316906323b872dd906064016020604051808303816000875af11580156103cd573d6000803e3d6000fd5b505050506040513d601f19601f820116820180604052508101906103f19190610fdd565b6104505760405162461bcd60e51b815260206004820152602560248201527f496e747569745374616b65723a2066756e64696e67207472616e736665722066604482015264185a5b195960da1b60648201526084015b60405180910390fd5b80600660008282546104629190610fff565b90915550506040518181527fb1d234dd8081b3e00565c8b359ca6fa117fc7b024f75d85b6830b190bef5c76b906020015b60405180910390a150565b600081116104ee5760405162461bcd60e51b815260206004820152601e60248201527f496e747569745374616b65723a2063616e6e6f7420756e7374616b65203000006044820152606401610447565b336000908152600360205260409020548111156105585760405162461bcd60e51b815260206004820152602260248201527f496e747569745374616b65723a20696e73756666696369656e742062616c616e604482015261636560f01b6064820152608401610447565b60025460009060ff1680156105895750336000908152600460205260409020546105869062093a8090610fff565b42105b156105a9576103e861059c601484611012565b6105a69190611029565b90505b60006105b58284610fc4565b336000908152600360205260408120805492935085929091906105d9908490610fc4565b9250508190555082600160008282546105f29190610fc4565b9091555050811561061557816006600082825461060f9190610fff565b90915550505b60405163a9059cbb60e01b8152336004820152602481018290527f00000000000000000000000000000000000000000000000000000000000000006001600160a01b03169063a9059cbb906044016020604051808303816000875af1158015610682573d6000803e3d6000fd5b505050506040513d601f19601f820116820180604052508101906106a69190610fdd565b6106c25760405162461bcd60e51b81526004016104479061104b565b604080518481526020810184905233917ff960dbf9e5d0682f7a298ed974e33a28b4464914b7a2bfac12ae419a9afeb280910160405180910390a2505050565b60025460ff166107605760405162461bcd60e51b815260206004820152602360248201527f496e747569745374616b65723a207374616b696e67206e6f7420636f6d706c656044820152621d195960ea1b6064820152608401610447565b336000908152600560205260409020546107c65760405162461bcd60e51b815260206004820152602160248201527f496e747569745374616b65723a206e6f207265776172647320746f20636c61696044820152606d60f81b6064820152608401610447565b3360008181526005602052604080822080549290555163a9059cbb60e01b8152600481019290925260248201819052906001600160a01b037f0000000000000000000000000000000000000000000000000000000000000000169063a9059cbb906044016020604051808303816000875af1158015610849573d6000803e3d6000fd5b505050506040513d601f19601f8201168201806040525081019061086d9190610fdd565b6108c55760405162461bcd60e51b8152602060048201526024808201527f496e747569745374616b65723a20726577617264207472616e736665722066616044820152631a5b195960e21b6064820152608401610447565b50565b600254610100900460ff1661092a5760405162461bcd60e51b815260206004820152602260248201527f496e747569745374616b65723a207769746864726177616c73206e6f74206f7060448201526132b760f11b6064820152608401610447565b336000908152600360205260409020546109925760405162461bcd60e51b8152602060048201526024808201527f496e747569745374616b65723a206e6f2062616c616e636520746f20776974686044820152636472617760e01b6064820152608401610447565b33600090815260036020526040812080549082905560018054919283926109ba908490610fc4565b909155505060405163a9059cbb60e01b8152336004820152602481018290527f00000000000000000000000000000000000000000000000000000000000000006001600160a01b03169063a9059cbb906044016020604051808303816000875af1158015610a2c573d6000803e3d6000fd5b505050506040513d601f19601f82011682018060405250810190610a509190610fdd565b610a6c5760405162461bcd60e51b81526004016104479061104b565b60405181815233907f884edad9ce6fa2440d8a54cc123490eb96d2768479d49ff9c7366125a9424364906020015b60405180910390a250565b600054421015610b025760405162461bcd60e51b815260206004820152602260248201527f496e747569745374616b65723a20646561646c696e65206e6f74207265616368604482015261195960f21b6064820152608401610447565b60025460ff1615610b255760405162461bcd60e51b815260040161044790611082565b6002805460ff191660019081179091555469021e19e0c9bab240000011610b8f57610b4e610f12565b600180546040805192835260208301919091527fc1e8f58bf1874172646c1654886e717826133812a5cf2377042736e5ee1788dc91015b60405180910390a1565b6002805461ff001916610100179055600154604080516000815260208101929092527fc1e8f58bf1874172646c1654886e717826133812a5cf2377042736e5ee1788dc9101610b85565b6000544210610c2a5760405162461bcd60e51b815260206004820152601d60248201527f496e747569745374616b65723a20646561646c696e65207061737365640000006044820152606401610447565b60025460ff1615610c4d5760405162461bcd60e51b815260040161044790611082565b60008111610c9d5760405162461bcd60e51b815260206004820152601c60248201527f496e747569745374616b65723a2063616e6e6f74207374616b652030000000006044820152606401610447565b6040516323b872dd60e01b8152336004820152306024820152604481018290527f00000000000000000000000000000000000000000000000000000000000000006001600160a01b0316906323b872dd906064016020604051808303816000875af1158015610d10573d6000803e3d6000fd5b505050506040513d601f19601f82011682018060405250810190610d349190610fdd565b610d505760405162461bcd60e51b81526004016104479061104b565b3360009081526003602052604081208054839290610d6f908490610fff565b925050819055508060016000828254610d889190610fff565b90915550503360008181526004602090815260409182902042908190558251858152918201527f5af417134f72a9d41143ace85b0a26dce6f550f894f2cbc1eeee8810603d91b69101610a9a565b6001600160a01b038116600090815260036020908152604080832054600490925282205460025491929091819060ff168015610e1e575069021e19e0c9bab240000060015410155b8015610e2a5750600084115b15610e4d5760015484600654610e409190611012565b610e4a9190611029565b91505b60025460ff161580610e6b5750610e6762093a8084610fff565b4210155b90509193509193565b60008060008060008060015469021e19e0c9bab2400000306001600160a01b0316631300a6d16040518163ffffffff1660e01b8152600401602060405180830381865afa158015610ec9573d6000803e3d6000fd5b505050506040513d601f19601f82011682018060405250810190610eed91906110c9565b600254600654939a92995090975060ff80821697506101009091041694509092509050565b6006541580610f215750600154155b15610f2857565b6006546001546040805183815260208101929092527f29e98ba00d07f171959c4ddcd2f3020debc7c52cf537a034d7e664340d098c6c9101610493565b600060208284031215610f7757600080fd5b81356001600160a01b0381168114610f8e57600080fd5b9392505050565b600060208284031215610fa757600080fd5b5035919050565b634e487b7160e01b600052601160045260246000fd5b81810381811115610fd757610fd7610fae565b92915050565b600060208284031215610fef57600080fd5b81518015158114610f8e57600080fd5b80820180821115610fd757610fd7610fae565b8082028115828204841417610fd757610fd7610fae565b60008261104657634e487b7160e01b600052601260045260246000fd5b500490565b6020808252601d908201527f496e747569745374616b65723a207472616e73666572206661696c6564000000604082015260600190565b60208082526027908201527f496e747569745374616b65723a207374616b696e6720616c726561647920636f6040820152661b5c1b195d195960ca1b606082015260800190565b6000602082840312156110db57600080fd5b505191905056fea2646970667358221220cc174ba3be974bb4924dc8241ac6747aa85dda9a0e4853656520d0d172816e8064736f6c63430008140033",
  "devdoc": {
    "details": "Decentralized staking contract for INTUIT tokens with collective goals  Features: - Stake INTUIT tokens to earn rewards - Collective threshold - if reached, rewards are distributed - If threshold not met, users can withdraw their stakes - Integrates with existing INTUIT token ecosystem",
    "kind": "dev",
    "methods": {
      "claimRewards()": {
        "details": "Claim earned rewards"
      },
      "execute()": {
        "details": "Execute staking outcome after deadline"
      },
      "fundRewardPool(uint256)": {
        "details": "Fund the reward pool (called by DEX contract from trading fees)"
      },
      "getStakingStatus()": {
        "details": "Get staking contract status"
      },
      "getUserStakeInfo(address)": {
        "details": "Get user's current stake info"
      },
      "stake(uint256)": {
        "details": "Stake INTUIT tokens"
      },
      "timeLeft()": {
        "details": "Get time left until deadline"
      },
      "unstake(uint256)": {
        "details": "Unstake tokens (with potential fee if early)"
      },
      "withdraw()": {
        "details": "Withdraw stake if threshold wasn't met"
      }
    },
    "title": "IntuitStaker",
    "version": 1
  },
  "userdoc": {
    "kind": "user",
    "methods": {},
    "version": 1
  },
  "storageLayout": {
    "storage": [
      {
        "astId": 874,
        "contract": "contracts/IntuitStaker.sol:IntuitStaker",
        "label": "deadline",
        "offset": 0,
        "slot": "0",
        "type": "t_uint256"
      },
      {
        "astId": 876,
        "contract": "contracts/IntuitStaker.sol:IntuitStaker",
        "label": "totalStaked",
        "offset": 0,
        "slot": "1",
        "type": "t_uint256"
      },
      {
        "astId": 878,
        "contract": "contracts/IntuitStaker.sol:IntuitStaker",
        "label": "stakingCompleted",
        "offset": 0,
        "slot": "2",
        "type": "t_bool"
      },
      {
        "astId": 880,
        "contract": "contracts/IntuitStaker.sol:IntuitStaker",
        "label": "openForWithdraw",
        "offset": 1,
        "slot": "2",
        "type": "t_bool"
      },
      {
        "astId": 884,
        "contract": "contracts/IntuitStaker.sol:IntuitStaker",
        "label": "balances",
        "offset": 0,
        "slot": "3",
        "type": "t_mapping(t_address,t_uint256)"
      },
      {
        "astId": 888,
        "contract": "contracts/IntuitStaker.sol:IntuitStaker",
        "label": "stakeTimestamp",
        "offset": 0,
        "slot": "4",
        "type": "t_mapping(t_address,t_uint256)"
      },
      {
        "astId": 892,
        "contract": "contracts/IntuitStaker.sol:IntuitStaker",
        "label": "rewards",
        "offset": 0,
        "slot": "5",
        "type": "t_mapping(t_address,t_uint256)"
      },
      {
        "astId": 894,
        "contract": "contracts/IntuitStaker.sol:IntuitStaker",
        "label": "rewardPool",
        "offset": 0,
        "slot": "6",
        "type": "t_uint256"
      }
    ],
    "types": {
      "t_address": {
        "encoding": "inplace",
        "label": "address",
        "numberOfBytes": "20"
      },
      "t_bool": {
        "encoding": "inplace",
        "label": "bool",
        "numberOfBytes": "1"
      },
      "t_mapping(t_address,t_uint256)": {
        "encoding": "mapping",
        "key": "t_address",
        "label": "mapping(address => uint256)",
        "numberOfBytes": "32",
        "value": "t_uint256"
      },
      "t_uint256": {
        "encoding": "inplace",
        "label": "uint256",
        "numberOfBytes": "32"
      }
    }
  }
}