{
  "address": "0xbab02368889f73ebBC506F7482b203195c48783E",
  "abi": [
    {
      "inputs": [],
      "stateMutability": "nonpayable",
      "type": "constructor"
    },
    {
      "inputs": [
        {
          "internalType": "address",
          "name": "target",
          "type": "address"
        }
      ],
      "name": "AddressEmptyCode",
      "type": "error"
    },
    {
      "inputs": [
        {
          "internalType": "address",
          "name": "account",
          "type": "address"
        }
      ],
      "name": "AddressInsufficientBalance",
      "type": "error"
    },
    {
      "inputs": [],
      "name": "FailedInnerCall",
      "type": "error"
    },
    {
      "inputs": [
        {
          "internalType": "address",
          "name": "owner",
          "type": "address"
        }
      ],
      "name": "OwnableInvalidOwner",
      "type": "error"
    },
    {
      "inputs": [
        {
          "internalType": "address",
          "name": "account",
          "type": "address"
        }
      ],
      "name": "OwnableUnauthorizedAccount",
      "type": "error"
    },
    {
      "inputs": [],
      "name": "ReentrancyGuardReentrantCall",
      "type": "error"
    },
    {
      "inputs": [
        {
          "internalType": "address",
          "name": "token",
          "type": "address"
        }
      ],
      "name": "SafeERC20FailedOperation",
      "type": "error"
    },
    {
      "anonymous": false,
      "inputs": [
        {
          "indexed": true,
          "internalType": "address",
          "name": "previousOwner",
          "type": "address"
        },
        {
          "indexed": true,
          "internalType": "address",
          "name": "newOwner",
          "type": "address"
        }
      ],
      "name": "OwnershipTransferred",
      "type": "event"
    },
    {
      "anonymous": false,
      "inputs": [
        {
          "indexed": true,
          "internalType": "address",
          "name": "token",
          "type": "address"
        },
        {
          "indexed": false,
          "internalType": "uint256",
          "name": "rewardRate",
          "type": "uint256"
        },
        {
          "indexed": false,
          "internalType": "uint256",
          "name": "minStakeAmount",
          "type": "uint256"
        },
        {
          "indexed": false,
          "internalType": "uint256",
          "name": "lockPeriod",
          "type": "uint256"
        }
      ],
      "name": "PoolCreated",
      "type": "event"
    },
    {
      "anonymous": false,
      "inputs": [
        {
          "indexed": true,
          "internalType": "address",
          "name": "token",
          "type": "address"
        },
        {
          "indexed": false,
          "internalType": "uint256",
          "name": "newRewardRate",
          "type": "uint256"
        }
      ],
      "name": "PoolUpdated",
      "type": "event"
    },
    {
      "anonymous": false,
      "inputs": [
        {
          "indexed": true,
          "internalType": "address",
          "name": "user",
          "type": "address"
        },
        {
          "indexed": true,
          "internalType": "address",
          "name": "token",
          "type": "address"
        },
        {
          "indexed": false,
          "internalType": "uint256",
          "name": "reward",
          "type": "uint256"
        }
      ],
      "name": "RewardsClaimed",
      "type": "event"
    },
    {
      "anonymous": false,
      "inputs": [
        {
          "indexed": true,
          "internalType": "address",
          "name": "user",
          "type": "address"
        },
        {
          "indexed": true,
          "internalType": "address",
          "name": "token",
          "type": "address"
        },
        {
          "indexed": false,
          "internalType": "uint256",
          "name": "amount",
          "type": "uint256"
        }
      ],
      "name": "Staked",
      "type": "event"
    },
    {
      "anonymous": false,
      "inputs": [
        {
          "indexed": true,
          "internalType": "address",
          "name": "user",
          "type": "address"
        },
        {
          "indexed": true,
          "internalType": "address",
          "name": "token",
          "type": "address"
        },
        {
          "indexed": false,
          "internalType": "uint256",
          "name": "amount",
          "type": "uint256"
        }
      ],
      "name": "Unstaked",
      "type": "event"
    },
    {
      "inputs": [
        {
          "internalType": "address",
          "name": "_token",
          "type": "address"
        },
        {
          "internalType": "address",
          "name": "_user",
          "type": "address"
        }
      ],
      "name": "calculateRewards",
      "outputs": [
        {
          "internalType": "uint256",
          "name": "",
          "type": "uint256"
        }
      ],
      "stateMutability": "view",
      "type": "function"
    },
    {
      "inputs": [
        {
          "internalType": "address",
          "name": "_token",
          "type": "address"
        }
      ],
      "name": "claimRewards",
      "outputs": [],
      "stateMutability": "nonpayable",
      "type": "function"
    },
    {
      "inputs": [
        {
          "internalType": "address",
          "name": "_token",
          "type": "address"
        },
        {
          "internalType": "uint256",
          "name": "_rewardRate",
          "type": "uint256"
        },
        {
          "internalType": "uint256",
          "name": "_minStakeAmount",
          "type": "uint256"
        },
        {
          "internalType": "uint256",
          "name": "_lockPeriod",
          "type": "uint256"
        }
      ],
      "name": "createPool",
      "outputs": [],
      "stateMutability": "nonpayable",
      "type": "function"
    },
    {
      "inputs": [
        {
          "internalType": "address",
          "name": "_token",
          "type": "address"
        },
        {
          "internalType": "uint256",
          "name": "_amount",
          "type": "uint256"
        }
      ],
      "name": "emergencyWithdraw",
      "outputs": [],
      "stateMutability": "nonpayable",
      "type": "function"
    },
    {
      "inputs": [
        {
          "internalType": "address",
          "name": "_token",
          "type": "address"
        }
      ],
      "name": "getPoolInfo",
      "outputs": [
        {
          "internalType": "uint256",
          "name": "rewardRate",
          "type": "uint256"
        },
        {
          "internalType": "uint256",
          "name": "totalStaked",
          "type": "uint256"
        },
        {
          "internalType": "uint256",
          "name": "minStakeAmount",
          "type": "uint256"
        },
        {
          "internalType": "uint256",
          "name": "lockPeriod",
          "type": "uint256"
        },
        {
          "internalType": "bool",
          "name": "isActive",
          "type": "bool"
        }
      ],
      "stateMutability": "view",
      "type": "function"
    },
    {
      "inputs": [],
      "name": "getSupportedTokens",
      "outputs": [
        {
          "internalType": "address[]",
          "name": "",
          "type": "address[]"
        }
      ],
      "stateMutability": "view",
      "type": "function"
    },
    {
      "inputs": [
        {
          "internalType": "address",
          "name": "_token",
          "type": "address"
        },
        {
          "internalType": "address",
          "name": "_user",
          "type": "address"
        }
      ],
      "name": "getUserStakeInfo",
      "outputs": [
        {
          "internalType": "uint256",
          "name": "stakedAmount",
          "type": "uint256"
        },
        {
          "internalType": "uint256",
          "name": "stakeTime",
          "type": "uint256"
        },
        {
          "internalType": "uint256",
          "name": "pendingRewards",
          "type": "uint256"
        },
        {
          "internalType": "bool",
          "name": "canUnstake",
          "type": "bool"
        }
      ],
      "stateMutability": "view",
      "type": "function"
    },
    {
      "inputs": [],
      "name": "owner",
      "outputs": [
        {
          "internalType": "address",
          "name": "",
          "type": "address"
        }
      ],
      "stateMutability": "view",
      "type": "function"
    },
    {
      "inputs": [
        {
          "internalType": "address",
          "name": "",
          "type": "address"
        }
      ],
      "name": "pools",
      "outputs": [
        {
          "internalType": "contract IERC20",
          "name": "token",
          "type": "address"
        },
        {
          "internalType": "uint256",
          "name": "rewardRate",
          "type": "uint256"
        },
        {
          "internalType": "uint256",
          "name": "totalStaked",
          "type": "uint256"
        },
        {
          "internalType": "uint256",
          "name": "lastUpdateTime",
          "type": "uint256"
        },
        {
          "internalType": "bool",
          "name": "isActive",
          "type": "bool"
        },
        {
          "internalType": "uint256",
          "name": "minStakeAmount",
          "type": "uint256"
        },
        {
          "internalType": "uint256",
          "name": "lockPeriod",
          "type": "uint256"
        }
      ],
      "stateMutability": "view",
      "type": "function"
    },
    {
      "inputs": [],
      "name": "renounceOwnership",
      "outputs": [],
      "stateMutability": "nonpayable",
      "type": "function"
    },
    {
      "inputs": [
        {
          "internalType": "address",
          "name": "_token",
          "type": "address"
        },
        {
          "internalType": "uint256",
          "name": "_amount",
          "type": "uint256"
        }
      ],
      "name": "stake",
      "outputs": [],
      "stateMutability": "nonpayable",
      "type": "function"
    },
    {
      "inputs": [
        {
          "internalType": "address",
          "name": "",
          "type": "address"
        },
        {
          "internalType": "address",
          "name": "",
          "type": "address"
        }
      ],
      "name": "stakes",
      "outputs": [
        {
          "internalType": "uint256",
          "name": "amount",
          "type": "uint256"
        },
        {
          "internalType": "uint256",
          "name": "stakeTime",
          "type": "uint256"
        },
        {
          "internalType": "uint256",
          "name": "lastRewardTime",
          "type": "uint256"
        }
      ],
      "stateMutability": "view",
      "type": "function"
    },
    {
      "inputs": [
        {
          "internalType": "uint256",
          "name": "",
          "type": "uint256"
        }
      ],
      "name": "supportedTokens",
      "outputs": [
        {
          "internalType": "address",
          "name": "",
          "type": "address"
        }
      ],
      "stateMutability": "view",
      "type": "function"
    },
    {
      "inputs": [
        {
          "internalType": "address",
          "name": "newOwner",
          "type": "address"
        }
      ],
      "name": "transferOwnership",
      "outputs": [],
      "stateMutability": "nonpayable",
      "type": "function"
    },
    {
      "inputs": [
        {
          "internalType": "address",
          "name": "_token",
          "type": "address"
        },
        {
          "internalType": "uint256",
          "name": "_amount",
          "type": "uint256"
        }
      ],
      "name": "unstake",
      "outputs": [],
      "stateMutability": "nonpayable",
      "type": "function"
    },
    {
      "inputs": [
        {
          "internalType": "address",
          "name": "_token",
          "type": "address"
        },
        {
          "internalType": "uint256",
          "name": "_newRewardRate",
          "type": "uint256"
        }
      ],
      "name": "updateRewardRate",
      "outputs": [],
      "stateMutability": "nonpayable",
      "type": "function"
    }
  ],
  "transactionHash": "0xc489bbf92c1f51f3c33a17aa786e44fe13227938ab5401e0207611569d46cc59",
  "args": [],
  "numDeployments": 1,
  "solcInputHash": "bc3a7a8404d0d5dd62c1a78d757835c9",
  "bytecode": "0x608060405234801561001057600080fd5b50338061003757604051631e4fbdf760e01b81526000600482015260240160405180910390fd5b6100408161004a565b506001805561009a565b600080546001600160a01b038381166001600160a01b0319831681178455604051919092169283917f8be0079c531659141344cd1fd0a4f28419497f9722a3daafe3b4186f6b6457e09190a35050565b611346806100a96000396000f3fe608060405234801561001057600080fd5b50600436106100ff5760003560e01c8063adc9772e11610097578063d785b59511610066578063d785b59514610372578063ef5cfb8c146103a7578063f0b3adee146103ba578063f2fde38b146103cd57600080fd5b8063adc9772e14610324578063c2a672e014610337578063c62556261461034a578063d3c7c2c71461035d57600080fd5b8063922d3e4c116100d3578063922d3e4c1461020f57806395ccea6714610222578063a4063dbc14610235578063a4e47b66146102cf57600080fd5b8062c9d5091461010457806306bfa9381461012a578063715018a6146101e05780638da5cb5b146101ea575b600080fd5b61011761011236600461110a565b6103e0565b6040519081526020015b60405180910390f35b6101b661013836600461113d565b6001600160a01b03908116600090815260026020818152604092839020835160e0810185528154909516855260018101549185018290529182015492840183905260038201546060850152600482015460ff16151560808501819052600583015460a0860181905260069093015460c0909501859052909492939192565b6040805195865260208601949094529284019190915260608301521515608082015260a001610121565b6101e8610520565b005b6000546001600160a01b03165b6040516001600160a01b039091168152602001610121565b6101e861021d366004611158565b610534565b6101e8610230366004611191565b610714565b61028e61024336600461113d565b600260208190526000918252604090912080546001820154928201546003830154600484015460058501546006909501546001600160a01b0390941695949293919260ff9091169187565b604080516001600160a01b03909816885260208801969096529486019390935260608501919091521515608084015260a083015260c082015260e001610121565b6103096102dd36600461110a565b600360209081526000928352604080842090915290825290208054600182015460029092015490919083565b60408051938452602084019290925290820152606001610121565b6101e8610332366004611191565b610746565b6101e8610345366004611191565b6108cb565b6101f76103583660046111bb565b610aa0565b610365610aca565b60405161012191906111d4565b61038561038036600461110a565b610b2c565b6040805194855260208501939093529183015215156060820152608001610121565b6101e86103b536600461113d565b610c30565b6101e86103c8366004611191565b610d30565b6101e86103db36600461113d565b610dcf565b6001600160a01b03821660009081526002602052604081206004015460ff1661040b5750600061051a565b6001600160a01b03808416600090815260036020908152604080832093861683529281528282208351606081018552815480825260018301549382019390935260029091015493810193909352900361046857600091505061051a565b6001600160a01b038085166000908152600260208181526040808420815160e08101835281549096168652600181015492860192909252918101548483015260038101546060850152600481015460ff1615156080850152600581015460a08501526006015460c08401528301516104e09042611237565b9050670de0b6b3a76400008183602001518560000151610500919061124a565b61050a919061124a565b6105149190611261565b93505050505b92915050565b610528610e0a565b6105326000610e37565b565b61053c610e0a565b6001600160a01b03841661058f5760405162461bcd60e51b8152602060048201526015602482015274496e76616c696420746f6b656e206164647265737360581b60448201526064015b60405180910390fd5b6001600160a01b03841660009081526002602052604090206004015460ff16156105f15760405162461bcd60e51b8152602060048201526013602482015272506f6f6c20616c72656164792065786973747360681b6044820152606401610586565b6040805160e0810182526001600160a01b0386811680835260208084018881526000858701818152426060808901918252600160808a0181815260a08b018e815260c08c018e81528a88526002808b528e89209d518e546001600160a01b031990811691909e16178e5598518d8501559551978c0197909755925160038b015591516004808b01805460ff191692151592909217909155945160058a01559151600690980197909755825496870183559190527f8a35acfbc15ff81a39ae7d344fd709f28e8600b4aa8c65c6b64bfe7fe36bd19b9094018054909316821790925583518781529182018690529281018490527fc8e774967d7f45e5814dbb800335ed47014999568397f08e79b0f322047f743f910160405180910390a250505050565b61071c610e0a565b6107426107316000546001600160a01b031690565b6001600160a01b0384169083610e87565b5050565b61074e610eeb565b6001600160a01b03821660009081526002602052604090206004015460ff166107895760405162461bcd60e51b815260040161058690611283565b6001600160a01b0382166000908152600260205260409020600501548110156107eb5760405162461bcd60e51b8152602060048201526014602482015273416d6f756e742062656c6f77206d696e696d756d60601b6044820152606401610586565b6001600160a01b03808316600090815260026020908152604080832060038352818420338086529352922082549293909261082a929116903086610f15565b8282600201600082825461083e91906112ac565b909155505042600383015580541561086f578281600001600082825461086491906112ac565b909155506108799050565b8281554260018201555b4260028201556040518381526001600160a01b0385169033907f5dac0c1b1112564a045ba943c9d50270893e8e826c49be8e7073adc713ab7bd7906020015b60405180910390a3505061074260018055565b6108d3610eeb565b6001600160a01b03821660009081526002602052604090206004015460ff1661090e5760405162461bcd60e51b815260040161058690611283565b6001600160a01b0382166000908152600360209081526040808320338452909152902080548211156109825760405162461bcd60e51b815260206004820152601a60248201527f496e73756666696369656e74207374616b656420616d6f756e740000000000006044820152606401610586565b6001600160a01b03831660009081526002602052604090206006810154156109fd57806006015482600101546109b891906112ac565b4210156109fd5760405162461bcd60e51b8152602060048201526013602482015272151bdad95b9cc81cdd1a5b1b081b1bd8dad959606a1b6044820152606401610586565b82816002016000828254610a119190611237565b9091555050426003820155815483908390600090610a30908490611237565b90915550508154600003610a4d5760006001830181905560028301555b8054610a63906001600160a01b03163385610e87565b6040518381526001600160a01b0385169033907fd8654fcc8cf5b36d30b3f5e4688fc78118e6d68de60b9994e09902268b57c3e3906020016108b8565b60048181548110610ab057600080fd5b6000918252602090912001546001600160a01b0316905081565b60606004805480602002602001604051908101604052809291908181526020018280548015610b2257602002820191906000526020600020905b81546001600160a01b03168152600190910190602001808311610b04575b5050505050905090565b6001600160a01b03808316600081815260036020818152604080842087871685528252808420815160608082018452825482526001808401548387015260029384015483860152978752828552838720845160e0810186528154909a168a5280890154958a019590955291840154928801929092529282015492860192909252600481015460ff1615156080860152600581015460a08601526006015460c08501819052919384938493849392919015801590610bed575060008360200151115b15610c0c578160c001518360200151610c0691906112ac565b42101590505b82516020840151610c1d8b8b6103e0565b919b909a50909850909650945050505050565b610c38610eeb565b6001600160a01b03811660009081526002602052604090206004015460ff16610c735760405162461bcd60e51b815260040161058690611283565b6000610c7f82336103e0565b905060008111610cc75760405162461bcd60e51b81526020600482015260136024820152724e6f207265776172647320746f20636c61696d60681b6044820152606401610586565b6001600160a01b0382166000818152600360209081526040808320338085529083529281902042600290910155518481527f9310ccfcb8de723f578a9e4282ea9f521f05ae40dc08f3068dfad528a65ee3c7910160405180910390a350610d2d60018055565b50565b610d38610e0a565b6001600160a01b03821660009081526002602052604090206004015460ff16610d735760405162461bcd60e51b815260040161058690611283565b6001600160a01b03821660008181526002602052604090819020600101839055517f2f4ae87a584f00dc35b043dd1c5ac839c1f41cd3a66e834d4e13faa6251634e690610dc39084815260200190565b60405180910390a25050565b610dd7610e0a565b6001600160a01b038116610e0157604051631e4fbdf760e01b815260006004820152602401610586565b610d2d81610e37565b6000546001600160a01b031633146105325760405163118cdaa760e01b8152336004820152602401610586565b600080546001600160a01b038381166001600160a01b0319831681178455604051919092169283917f8be0079c531659141344cd1fd0a4f28419497f9722a3daafe3b4186f6b6457e09190a35050565b6040516001600160a01b03838116602483015260448201839052610ee691859182169063a9059cbb906064015b604051602081830303815290604052915060e01b6020820180516001600160e01b038381831617835250505050610f54565b505050565b600260015403610f0e57604051633ee5aeb560e01b815260040160405180910390fd5b6002600155565b6040516001600160a01b038481166024830152838116604483015260648201839052610f4e9186918216906323b872dd90608401610eb4565b50505050565b6000610f696001600160a01b03841683610fb7565b90508051600014158015610f8e575080806020019051810190610f8c91906112bf565b155b15610ee657604051635274afe760e01b81526001600160a01b0384166004820152602401610586565b6060610fc583836000610fcc565b9392505050565b606081471015610ff15760405163cd78605960e01b8152306004820152602401610586565b600080856001600160a01b0316848660405161100d91906112e1565b60006040518083038185875af1925050503d806000811461104a576040519150601f19603f3d011682016040523d82523d6000602084013e61104f565b606091505b509150915061105f868383611069565b9695505050505050565b60608261107e57611079826110c5565b610fc5565b815115801561109557506001600160a01b0384163b155b156110be57604051639996b31560e01b81526001600160a01b0385166004820152602401610586565b5080610fc5565b8051156110d55780518082602001fd5b604051630a12f52160e11b815260040160405180910390fd5b80356001600160a01b038116811461110557600080fd5b919050565b6000806040838503121561111d57600080fd5b611126836110ee565b9150611134602084016110ee565b90509250929050565b60006020828403121561114f57600080fd5b610fc5826110ee565b6000806000806080858703121561116e57600080fd5b611177856110ee565b966020860135965060408601359560600135945092505050565b600080604083850312156111a457600080fd5b6111ad836110ee565b946020939093013593505050565b6000602082840312156111cd57600080fd5b5035919050565b6020808252825182820181905260009190848201906040850190845b818110156112155783516001600160a01b0316835292840192918401916001016111f0565b50909695505050505050565b634e487b7160e01b600052601160045260246000fd5b8181038181111561051a5761051a611221565b808202811582820484141761051a5761051a611221565b60008261127e57634e487b7160e01b600052601260045260246000fd5b500490565b6020808252600f908201526e506f6f6c206e6f742061637469766560881b604082015260600190565b8082018082111561051a5761051a611221565b6000602082840312156112d157600080fd5b81518015158114610fc557600080fd5b6000825160005b8181101561130257602081860181015185830152016112e8565b50600092019182525091905056fea2646970667358221220e41f52c524e68c8d33544c8160f3fdb06153c125046d0c51419a5d7ae13fe72a64736f6c63430008140033",
  "devdoc": {
    "details": "Contrat de staking universel pour n'importe quel token ERC20 Chaque token a sa propre pool avec ses paramtres personnalisables",
    "errors": {
      "AddressEmptyCode(address)": [
        {
          "details": "There's no code at `target` (it is not a contract)."
        }
      ],
      "AddressInsufficientBalance(address)": [
        {
          "details": "The ETH balance of the account is not enough to perform the operation."
        }
      ],
      "FailedInnerCall()": [
        {
          "details": "A call to an address target failed. The target may have reverted."
        }
      ],
      "OwnableInvalidOwner(address)": [
        {
          "details": "The owner is not a valid owner account. (eg. `address(0)`)"
        }
      ],
      "OwnableUnauthorizedAccount(address)": [
        {
          "details": "The caller account is not authorized to perform an operation."
        }
      ],
      "ReentrancyGuardReentrantCall()": [
        {
          "details": "Unauthorized reentrant call."
        }
      ],
      "SafeERC20FailedOperation(address)": [
        {
          "details": "An operation with an ERC20 token failed."
        }
      ]
    },
    "kind": "dev",
    "methods": {
      "calculateRewards(address,address)": {
        "details": "Calculer les rewards d'un utilisateur pour un token"
      },
      "claimRewards(address)": {
        "details": "Claim rewards (simulation - dans un vrai contrat il faudrait une rserve de tokens)"
      },
      "createPool(address,uint256,uint256,uint256)": {
        "details": "Crer une nouvelle pool de staking pour un token"
      },
      "emergencyWithdraw(address,uint256)": {
        "details": "Emergency function to recover stuck tokens (only owner)"
      },
      "getPoolInfo(address)": {
        "details": "Obtenir les informations d'une pool"
      },
      "getSupportedTokens()": {
        "details": "Obtenir la liste des tokens supports"
      },
      "getUserStakeInfo(address,address)": {
        "details": "Obtenir les informations de stake d'un utilisateur"
      },
      "owner()": {
        "details": "Returns the address of the current owner."
      },
      "renounceOwnership()": {
        "details": "Leaves the contract without owner. It will not be possible to call `onlyOwner` functions. Can only be called by the current owner. NOTE: Renouncing ownership will leave the contract without an owner, thereby disabling any functionality that is only available to the owner."
      },
      "stake(address,uint256)": {
        "details": "Staker des tokens"
      },
      "transferOwnership(address)": {
        "details": "Transfers ownership of the contract to a new account (`newOwner`). Can only be called by the current owner."
      },
      "unstake(address,uint256)": {
        "details": "Unstaker des tokens"
      },
      "updateRewardRate(address,uint256)": {
        "details": "Mettre  jour le reward rate d'une pool"
      }
    },
    "title": "UniversalStaking",
    "version": 1
  },
  "userdoc": {
    "kind": "user",
    "methods": {},
    "version": 1
  },
  "storageLayout": {
    "storage": [
      {
        "astId": 8,
        "contract": "contracts/UniversalStaking.sol:UniversalStaking",
        "label": "_owner",
        "offset": 0,
        "slot": "0",
        "type": "t_address"
      },
      {
        "astId": 1523,
        "contract": "contracts/UniversalStaking.sol:UniversalStaking",
        "label": "_status",
        "offset": 0,
        "slot": "1",
        "type": "t_uint256"
      },
      {
        "astId": 1624,
        "contract": "contracts/UniversalStaking.sol:UniversalStaking",
        "label": "pools",
        "offset": 0,
        "slot": "2",
        "type": "t_mapping(t_address,t_struct(PoolInfo)1619_storage)"
      },
      {
        "astId": 1631,
        "contract": "contracts/UniversalStaking.sol:UniversalStaking",
        "label": "stakes",
        "offset": 0,
        "slot": "3",
        "type": "t_mapping(t_address,t_mapping(t_address,t_struct(StakeInfo)1603_storage))"
      },
      {
        "astId": 1634,
        "contract": "contracts/UniversalStaking.sol:UniversalStaking",
        "label": "supportedTokens",
        "offset": 0,
        "slot": "4",
        "type": "t_array(t_address)dyn_storage"
      }
    ],
    "types": {
      "t_address": {
        "encoding": "inplace",
        "label": "address",
        "numberOfBytes": "20"
      },
      "t_array(t_address)dyn_storage": {
        "base": "t_address",
        "encoding": "dynamic_array",
        "label": "address[]",
        "numberOfBytes": "32"
      },
      "t_bool": {
        "encoding": "inplace",
        "label": "bool",
        "numberOfBytes": "1"
      },
      "t_contract(IERC20)877": {
        "encoding": "inplace",
        "label": "contract IERC20",
        "numberOfBytes": "20"
      },
      "t_mapping(t_address,t_mapping(t_address,t_struct(StakeInfo)1603_storage))": {
        "encoding": "mapping",
        "key": "t_address",
        "label": "mapping(address => mapping(address => struct UniversalStaking.StakeInfo))",
        "numberOfBytes": "32",
        "value": "t_mapping(t_address,t_struct(StakeInfo)1603_storage)"
      },
      "t_mapping(t_address,t_struct(PoolInfo)1619_storage)": {
        "encoding": "mapping",
        "key": "t_address",
        "label": "mapping(address => struct UniversalStaking.PoolInfo)",
        "numberOfBytes": "32",
        "value": "t_struct(PoolInfo)1619_storage"
      },
      "t_mapping(t_address,t_struct(StakeInfo)1603_storage)": {
        "encoding": "mapping",
        "key": "t_address",
        "label": "mapping(address => struct UniversalStaking.StakeInfo)",
        "numberOfBytes": "32",
        "value": "t_struct(StakeInfo)1603_storage"
      },
      "t_struct(PoolInfo)1619_storage": {
        "encoding": "inplace",
        "label": "struct UniversalStaking.PoolInfo",
        "members": [
          {
            "astId": 1606,
            "contract": "contracts/UniversalStaking.sol:UniversalStaking",
            "label": "token",
            "offset": 0,
            "slot": "0",
            "type": "t_contract(IERC20)877"
          },
          {
            "astId": 1608,
            "contract": "contracts/UniversalStaking.sol:UniversalStaking",
            "label": "rewardRate",
            "offset": 0,
            "slot": "1",
            "type": "t_uint256"
          },
          {
            "astId": 1610,
            "contract": "contracts/UniversalStaking.sol:UniversalStaking",
            "label": "totalStaked",
            "offset": 0,
            "slot": "2",
            "type": "t_uint256"
          },
          {
            "astId": 1612,
            "contract": "contracts/UniversalStaking.sol:UniversalStaking",
            "label": "lastUpdateTime",
            "offset": 0,
            "slot": "3",
            "type": "t_uint256"
          },
          {
            "astId": 1614,
            "contract": "contracts/UniversalStaking.sol:UniversalStaking",
            "label": "isActive",
            "offset": 0,
            "slot": "4",
            "type": "t_bool"
          },
          {
            "astId": 1616,
            "contract": "contracts/UniversalStaking.sol:UniversalStaking",
            "label": "minStakeAmount",
            "offset": 0,
            "slot": "5",
            "type": "t_uint256"
          },
          {
            "astId": 1618,
            "contract": "contracts/UniversalStaking.sol:UniversalStaking",
            "label": "lockPeriod",
            "offset": 0,
            "slot": "6",
            "type": "t_uint256"
          }
        ],
        "numberOfBytes": "224"
      },
      "t_struct(StakeInfo)1603_storage": {
        "encoding": "inplace",
        "label": "struct UniversalStaking.StakeInfo",
        "members": [
          {
            "astId": 1598,
            "contract": "contracts/UniversalStaking.sol:UniversalStaking",
            "label": "amount",
            "offset": 0,
            "slot": "0",
            "type": "t_uint256"
          },
          {
            "astId": 1600,
            "contract": "contracts/UniversalStaking.sol:UniversalStaking",
            "label": "stakeTime",
            "offset": 0,
            "slot": "1",
            "type": "t_uint256"
          },
          {
            "astId": 1602,
            "contract": "contracts/UniversalStaking.sol:UniversalStaking",
            "label": "lastRewardTime",
            "offset": 0,
            "slot": "2",
            "type": "t_uint256"
          }
        ],
        "numberOfBytes": "96"
      },
      "t_uint256": {
        "encoding": "inplace",
        "label": "uint256",
        "numberOfBytes": "32"
      }
    }
  }
}