{
  "address": "0xDc64a140Aa3E981100a9becA4E685f962f0cF6C9",
  "abi": [
    {
      "inputs": [
        {
          "internalType": "address",
          "name": "_intuitToken",
          "type": "address"
        }
      ],
      "stateMutability": "nonpayable",
      "type": "constructor"
    },
    {
      "anonymous": false,
      "inputs": [
        {
          "indexed": true,
          "internalType": "address",
          "name": "to",
          "type": "address"
        },
        {
          "indexed": false,
          "internalType": "uint256",
          "name": "amount",
          "type": "uint256"
        }
      ],
      "name": "EmergencyWithdraw",
      "type": "event"
    },
    {
      "anonymous": false,
      "inputs": [
        {
          "indexed": true,
          "internalType": "address",
          "name": "currentOwner",
          "type": "address"
        },
        {
          "indexed": true,
          "internalType": "address",
          "name": "newOwner",
          "type": "address"
        }
      ],
      "name": "OwnershipTransferInitiated",
      "type": "event"
    },
    {
      "anonymous": false,
      "inputs": [
        {
          "indexed": true,
          "internalType": "address",
          "name": "previousOwner",
          "type": "address"
        },
        {
          "indexed": true,
          "internalType": "address",
          "name": "newOwner",
          "type": "address"
        }
      ],
      "name": "OwnershipTransferred",
      "type": "event"
    },
    {
      "anonymous": false,
      "inputs": [
        {
          "indexed": true,
          "internalType": "address",
          "name": "to",
          "type": "address"
        },
        {
          "indexed": false,
          "internalType": "uint256",
          "name": "amount",
          "type": "uint256"
        }
      ],
      "name": "TokensReleased",
      "type": "event"
    },
    {
      "inputs": [],
      "name": "CLIFF_DURATION",
      "outputs": [
        {
          "internalType": "uint256",
          "name": "",
          "type": "uint256"
        }
      ],
      "stateMutability": "view",
      "type": "function"
    },
    {
      "inputs": [],
      "name": "TOTAL_ALLOCATION",
      "outputs": [
        {
          "internalType": "uint256",
          "name": "",
          "type": "uint256"
        }
      ],
      "stateMutability": "view",
      "type": "function"
    },
    {
      "inputs": [],
      "name": "VESTING_DURATION",
      "outputs": [
        {
          "internalType": "uint256",
          "name": "",
          "type": "uint256"
        }
      ],
      "stateMutability": "view",
      "type": "function"
    },
    {
      "inputs": [],
      "name": "acceptOwnership",
      "outputs": [],
      "stateMutability": "nonpayable",
      "type": "function"
    },
    {
      "inputs": [],
      "name": "deploymentTime",
      "outputs": [
        {
          "internalType": "uint256",
          "name": "",
          "type": "uint256"
        }
      ],
      "stateMutability": "view",
      "type": "function"
    },
    {
      "inputs": [],
      "name": "emergencyWithdraw",
      "outputs": [],
      "stateMutability": "nonpayable",
      "type": "function"
    },
    {
      "inputs": [],
      "name": "getReleasableAmount",
      "outputs": [
        {
          "internalType": "uint256",
          "name": "",
          "type": "uint256"
        }
      ],
      "stateMutability": "view",
      "type": "function"
    },
    {
      "inputs": [],
      "name": "getTreasuryBalance",
      "outputs": [
        {
          "internalType": "uint256",
          "name": "",
          "type": "uint256"
        }
      ],
      "stateMutability": "view",
      "type": "function"
    },
    {
      "inputs": [],
      "name": "getVestingInfo",
      "outputs": [
        {
          "internalType": "uint256",
          "name": "totalAllocation",
          "type": "uint256"
        },
        {
          "internalType": "uint256",
          "name": "released",
          "type": "uint256"
        },
        {
          "internalType": "uint256",
          "name": "releasable",
          "type": "uint256"
        },
        {
          "internalType": "uint256",
          "name": "cliffEnd",
          "type": "uint256"
        },
        {
          "internalType": "uint256",
          "name": "vestingEnd",
          "type": "uint256"
        }
      ],
      "stateMutability": "view",
      "type": "function"
    },
    {
      "inputs": [],
      "name": "intuitToken",
      "outputs": [
        {
          "internalType": "contract Intuit",
          "name": "",
          "type": "address"
        }
      ],
      "stateMutability": "view",
      "type": "function"
    },
    {
      "inputs": [],
      "name": "owner",
      "outputs": [
        {
          "internalType": "address",
          "name": "",
          "type": "address"
        }
      ],
      "stateMutability": "view",
      "type": "function"
    },
    {
      "inputs": [],
      "name": "pendingOwner",
      "outputs": [
        {
          "internalType": "address",
          "name": "",
          "type": "address"
        }
      ],
      "stateMutability": "view",
      "type": "function"
    },
    {
      "inputs": [
        {
          "internalType": "uint256",
          "name": "amount",
          "type": "uint256"
        }
      ],
      "name": "releaseTokens",
      "outputs": [],
      "stateMutability": "nonpayable",
      "type": "function"
    },
    {
      "inputs": [],
      "name": "releaseTokens",
      "outputs": [],
      "stateMutability": "nonpayable",
      "type": "function"
    },
    {
      "inputs": [],
      "name": "releasedAmount",
      "outputs": [
        {
          "internalType": "uint256",
          "name": "",
          "type": "uint256"
        }
      ],
      "stateMutability": "view",
      "type": "function"
    },
    {
      "inputs": [
        {
          "internalType": "address",
          "name": "newOwner",
          "type": "address"
        }
      ],
      "name": "transferOwnership",
      "outputs": [],
      "stateMutability": "nonpayable",
      "type": "function"
    }
  ],
  "transactionHash": "0xc8253a096a42d52a74e171a47ad0f24ef0ac230b5457a66be1aa8235614bf135",
  "args": [
    "0xCf7Ed3AccA5a467e9e704C703E8D87F634fB0Fc9"
  ],
  "numDeployments": 1,
  "solcInputHash": "ca1c0822d04d6b75fd515bdfdc9eb405",
  "bytecode": "0x60a060405234801561001057600080fd5b50604051610f06380380610f0683398101604081905261002f916100b0565b6001600160a01b0381166100895760405162461bcd60e51b815260206004820152601f60248201527f54726561737572793a20696e76616c696420746f6b656e206164647265737300604482015260640160405180910390fd5b6001600160a01b0316608052600080546001600160a01b03191633179055426003556100e0565b6000602082840312156100c257600080fd5b81516001600160a01b03811681146100d957600080fd5b9392505050565b608051610de861011e600039600081816101e401528181610370015281816105e10152818161071f015281816108dc01526109ca0152610de86000f3fe608060405234801561001057600080fd5b50600436106101005760003560e01c8063a96f866811610097578063dcc1673d11610066578063dcc1673d146101df578063e30c397814610206578063ecda10f514610219578063f2fde38b1461022257600080fd5b8063a96f866814610195578063b3daa6521461019d578063db2e21bc146101a7578063dc25a300146101af57600080fd5b806379ba5097116100d357806379ba5097146101525780638401b9681461015a5780638da5cb5b146101625780639b5655dc1461018d57600080fd5b80630dac7bea1461010557806345d30a17146101295780634b0babdd146101325780634cfc4d3014610147575b600080fd5b61011669b3fe97a2fafd2f40000081565b6040519081526020015b60405180910390f35b61011660025481565b610145610140366004610c72565b610235565b005b610116630784ce0081565b61014561046d565b610116610533565b600054610175906001600160a01b031681565b6040516001600160a01b039091168152602001610120565b6101166105c9565b610145610659565b61011662ed4e0081565b61014561081c565b6101b7610ad0565b604080519586526020860194909452928401919091526060830152608082015260a001610120565b6101757f000000000000000000000000000000000000000000000000000000000000000081565b600154610175906001600160a01b031681565b61011660035481565b610145610230366004610c8b565b610b22565b6000546001600160a01b031633146102685760405162461bcd60e51b815260040161025f90610cbb565b60405180910390fd5b6000610272610533565b9050808211156102d05760405162461bcd60e51b815260206004820152602360248201527f54726561737572793a20616d6f756e7420657863656564732072656c65617361604482015262626c6560e81b606482015260840161025f565b600082116103305760405162461bcd60e51b815260206004820152602760248201527f54726561737572793a20616d6f756e74206d75737420626520677265617465726044820152660207468616e20360cc1b606482015260840161025f565b81600260008282546103429190610d12565b909155505060005460405163a9059cbb60e01b81526001600160a01b039182166004820152602481018490527f00000000000000000000000000000000000000000000000000000000000000009091169063a9059cbb906044016020604051808303816000875af11580156103bb573d6000803e3d6000fd5b505050506040513d601f19601f820116820180604052508101906103df9190610d2b565b6104275760405162461bcd60e51b8152602060048201526019602482015278151c99585cdd5c9e4e881d1c985b9cd9995c8819985a5b1959603a1b604482015260640161025f565b6000546040518381526001600160a01b03909116907fc7798891864187665ac6dd119286e44ec13f014527aeeb2b8eb3fd413df931799060200160405180910390a25050565b6001546001600160a01b031633146104d95760405162461bcd60e51b815260206004820152602960248201527f54726561737572793a2063616c6c6572206973206e6f74207468652070656e6460448201526834b7339037bbb732b960b91b606482015260840161025f565b60008054600180546001600160a01b038082166001600160a01b031980861682178755909216909255604051919092169283917f8be0079c531659141344cd1fd0a4f28419497f9722a3daafe3b4186f6b6457e09190a350565b600062ed4e006003546105469190610d12565b4210156105535750600090565b6000600354426105639190610d4d565b9050630784ce00811061058d576002546105879069b3fe97a2fafd2f400000610d4d565b91505090565b6000630784ce006105a88369b3fe97a2fafd2f400000610d60565b6105b29190610d77565b9050600254816105c29190610d4d565b9250505090565b6040516370a0823160e01b81523060048201526000907f00000000000000000000000000000000000000000000000000000000000000006001600160a01b0316906370a0823190602401602060405180830381865afa158015610630573d6000803e3d6000fd5b505050506040513d601f19601f820116820180604052508101906106549190610d99565b905090565b6000546001600160a01b031633146106835760405162461bcd60e51b815260040161025f90610cbb565b600061068d610533565b9050600081116106df5760405162461bcd60e51b815260206004820152601e60248201527f54726561737572793a206e6f20746f6b656e7320746f2072656c656173650000604482015260640161025f565b80600260008282546106f19190610d12565b909155505060005460405163a9059cbb60e01b81526001600160a01b039182166004820152602481018390527f00000000000000000000000000000000000000000000000000000000000000009091169063a9059cbb906044016020604051808303816000875af115801561076a573d6000803e3d6000fd5b505050506040513d601f19601f8201168201806040525081019061078e9190610d2b565b6107d65760405162461bcd60e51b8152602060048201526019602482015278151c99585cdd5c9e4e881d1c985b9cd9995c8819985a5b1959603a1b604482015260640161025f565b6000546040518281526001600160a01b03909116907fc7798891864187665ac6dd119286e44ec13f014527aeeb2b8eb3fd413df93179906020015b60405180910390a250565b6000546001600160a01b031633146108465760405162461bcd60e51b815260040161025f90610cbb565b630784ce006003546108589190610d12565b4210156108c45760405162461bcd60e51b815260206004820152603460248201527f54726561737572793a20656d657267656e6379207769746864726177206f6e6c604482015273792061667465722076657374696e6720656e647360601b606482015260840161025f565b6040516370a0823160e01b81523060048201526000907f00000000000000000000000000000000000000000000000000000000000000006001600160a01b0316906370a0823190602401602060405180830381865afa15801561092b573d6000803e3d6000fd5b505050506040513d601f19601f8201168201806040525081019061094f9190610d99565b9050600081116109a15760405162461bcd60e51b815260206004820152601f60248201527f54726561737572793a206e6f20746f6b656e7320746f20776974686472617700604482015260640161025f565b60005460405163a9059cbb60e01b81526001600160a01b039182166004820152602481018390527f00000000000000000000000000000000000000000000000000000000000000009091169063a9059cbb906044016020604051808303816000875af1158015610a15573d6000803e3d6000fd5b505050506040513d601f19601f82011682018060405250810190610a399190610d2b565b610a915760405162461bcd60e51b815260206004820152602360248201527f54726561737572793a20656d657267656e6379207472616e73666572206661696044820152621b195960ea1b606482015260840161025f565b6000546040518281526001600160a01b03909116907f5fafa99d0643513820be26656b45130b01e1c03062e1266bf36f88cbd3bd969590602001610811565b600080600080600069b3fe97a2fafd2f400000600254610aee610533565b62ed4e00600354610aff9190610d12565b630784ce00600354610b119190610d12565b945094509450945094509091929394565b6000546001600160a01b03163314610b4c5760405162461bcd60e51b815260040161025f90610cbb565b6001600160a01b038116610bb25760405162461bcd60e51b815260206004820152602760248201527f54726561737572793a206e6577206f776e657220697320746865207a65726f206044820152666164647265737360c81b606482015260840161025f565b6000546001600160a01b0390811690821603610c215760405162461bcd60e51b815260206004820152602860248201527f54726561737572793a206e6577206f776e657220697320746865206375727265604482015267373a1037bbb732b960c11b606482015260840161025f565b600180546001600160a01b0319166001600160a01b0383811691821790925560008054604051929316917fb150023a879fd806e3599b6ca8ee3b60f0e360ab3846d128d67ebce1a391639a9190a350565b600060208284031215610c8457600080fd5b5035919050565b600060208284031215610c9d57600080fd5b81356001600160a01b0381168114610cb457600080fd5b9392505050565b60208082526021908201527f54726561737572793a2063616c6c6572206973206e6f7420746865206f776e656040820152603960f91b606082015260800190565b634e487b7160e01b600052601160045260246000fd5b80820180821115610d2557610d25610cfc565b92915050565b600060208284031215610d3d57600080fd5b81518015158114610cb457600080fd5b81810381811115610d2557610d25610cfc565b8082028115828204841417610d2557610d25610cfc565b600082610d9457634e487b7160e01b600052601260045260246000fd5b500490565b600060208284031215610dab57600080fd5b505191905056fea264697066735822122076c2607ff1a2122ef8f308abe0ec147566a61d2eac02bdc2e6d9013bd5615ca164736f6c63430008140033",
  "devdoc": {
    "details": "Treasury contract to hold and manage INTUIT token reserves Professional token management with time-locks and governance",
    "kind": "dev",
    "methods": {
      "acceptOwnership()": {
        "details": "Accept ownership transfer"
      },
      "emergencyWithdraw()": {
        "details": "Emergency withdraw - only after vesting period ends This is a safety mechanism in case of contract issues"
      },
      "getReleasableAmount()": {
        "details": "Calculate how many tokens are available for release"
      },
      "getTreasuryBalance()": {
        "details": "Get current treasury balance"
      },
      "getVestingInfo()": {
        "details": "Get vesting information"
      },
      "releaseTokens()": {
        "details": "Release vested tokens to owner"
      },
      "releaseTokens(uint256)": {
        "details": "Release specific amount of vested tokens"
      },
      "transferOwnership(address)": {
        "details": "Initiate ownership transfer (2-step process)"
      }
    },
    "title": "IntuitTreasuryV2",
    "version": 1
  },
  "userdoc": {
    "kind": "user",
    "methods": {},
    "version": 1
  },
  "storageLayout": {
    "storage": [
      {
        "astId": 1589,
        "contract": "contracts/IntuitTreasuryV2.sol:IntuitTreasuryV2",
        "label": "owner",
        "offset": 0,
        "slot": "0",
        "type": "t_address"
      },
      {
        "astId": 1591,
        "contract": "contracts/IntuitTreasuryV2.sol:IntuitTreasuryV2",
        "label": "pendingOwner",
        "offset": 0,
        "slot": "1",
        "type": "t_address"
      },
      {
        "astId": 1600,
        "contract": "contracts/IntuitTreasuryV2.sol:IntuitTreasuryV2",
        "label": "releasedAmount",
        "offset": 0,
        "slot": "2",
        "type": "t_uint256"
      },
      {
        "astId": 1602,
        "contract": "contracts/IntuitTreasuryV2.sol:IntuitTreasuryV2",
        "label": "deploymentTime",
        "offset": 0,
        "slot": "3",
        "type": "t_uint256"
      }
    ],
    "types": {
      "t_address": {
        "encoding": "inplace",
        "label": "address",
        "numberOfBytes": "20"
      },
      "t_uint256": {
        "encoding": "inplace",
        "label": "uint256",
        "numberOfBytes": "32"
      }
    }
  }
}