{
  "address": "0xCf7Ed3AccA5a467e9e704C703E8D87F634fB0Fc9",
  "abi": [
    {
      "inputs": [],
      "stateMutability": "nonpayable",
      "type": "constructor"
    },
    {
      "inputs": [
        {
          "internalType": "address",
          "name": "spender",
          "type": "address"
        },
        {
          "internalType": "uint256",
          "name": "allowance",
          "type": "uint256"
        },
        {
          "internalType": "uint256",
          "name": "needed",
          "type": "uint256"
        }
      ],
      "name": "ERC20InsufficientAllowance",
      "type": "error"
    },
    {
      "inputs": [
        {
          "internalType": "address",
          "name": "sender",
          "type": "address"
        },
        {
          "internalType": "uint256",
          "name": "balance",
          "type": "uint256"
        },
        {
          "internalType": "uint256",
          "name": "needed",
          "type": "uint256"
        }
      ],
      "name": "ERC20InsufficientBalance",
      "type": "error"
    },
    {
      "inputs": [
        {
          "internalType": "address",
          "name": "approver",
          "type": "address"
        }
      ],
      "name": "ERC20InvalidApprover",
      "type": "error"
    },
    {
      "inputs": [
        {
          "internalType": "address",
          "name": "receiver",
          "type": "address"
        }
      ],
      "name": "ERC20InvalidReceiver",
      "type": "error"
    },
    {
      "inputs": [
        {
          "internalType": "address",
          "name": "sender",
          "type": "address"
        }
      ],
      "name": "ERC20InvalidSender",
      "type": "error"
    },
    {
      "inputs": [
        {
          "internalType": "address",
          "name": "spender",
          "type": "address"
        }
      ],
      "name": "ERC20InvalidSpender",
      "type": "error"
    },
    {
      "anonymous": false,
      "inputs": [
        {
          "indexed": true,
          "internalType": "address",
          "name": "owner",
          "type": "address"
        },
        {
          "indexed": true,
          "internalType": "address",
          "name": "spender",
          "type": "address"
        },
        {
          "indexed": false,
          "internalType": "uint256",
          "name": "value",
          "type": "uint256"
        }
      ],
      "name": "Approval",
      "type": "event"
    },
    {
      "anonymous": false,
      "inputs": [
        {
          "indexed": true,
          "internalType": "address",
          "name": "deployer",
          "type": "address"
        },
        {
          "indexed": false,
          "internalType": "uint256",
          "name": "totalSupply",
          "type": "uint256"
        }
      ],
      "name": "TokensDeployed",
      "type": "event"
    },
    {
      "anonymous": false,
      "inputs": [
        {
          "indexed": true,
          "internalType": "address",
          "name": "from",
          "type": "address"
        },
        {
          "indexed": true,
          "internalType": "address",
          "name": "to",
          "type": "address"
        },
        {
          "indexed": false,
          "internalType": "uint256",
          "name": "value",
          "type": "uint256"
        }
      ],
      "name": "Transfer",
      "type": "event"
    },
    {
      "inputs": [],
      "name": "TOTAL_SUPPLY",
      "outputs": [
        {
          "internalType": "uint256",
          "name": "",
          "type": "uint256"
        }
      ],
      "stateMutability": "view",
      "type": "function"
    },
    {
      "inputs": [
        {
          "internalType": "address",
          "name": "owner",
          "type": "address"
        },
        {
          "internalType": "address",
          "name": "spender",
          "type": "address"
        }
      ],
      "name": "allowance",
      "outputs": [
        {
          "internalType": "uint256",
          "name": "",
          "type": "uint256"
        }
      ],
      "stateMutability": "view",
      "type": "function"
    },
    {
      "inputs": [
        {
          "internalType": "address",
          "name": "spender",
          "type": "address"
        },
        {
          "internalType": "uint256",
          "name": "value",
          "type": "uint256"
        }
      ],
      "name": "approve",
      "outputs": [
        {
          "internalType": "bool",
          "name": "",
          "type": "bool"
        }
      ],
      "stateMutability": "nonpayable",
      "type": "function"
    },
    {
      "inputs": [
        {
          "internalType": "address",
          "name": "account",
          "type": "address"
        }
      ],
      "name": "balanceOf",
      "outputs": [
        {
          "internalType": "uint256",
          "name": "",
          "type": "uint256"
        }
      ],
      "stateMutability": "view",
      "type": "function"
    },
    {
      "inputs": [],
      "name": "decimals",
      "outputs": [
        {
          "internalType": "uint8",
          "name": "",
          "type": "uint8"
        }
      ],
      "stateMutability": "view",
      "type": "function"
    },
    {
      "inputs": [],
      "name": "getTokenInfo",
      "outputs": [
        {
          "internalType": "string",
          "name": "tokenName",
          "type": "string"
        },
        {
          "internalType": "string",
          "name": "tokenSymbol",
          "type": "string"
        },
        {
          "internalType": "uint256",
          "name": "tokenSupply",
          "type": "uint256"
        },
        {
          "internalType": "uint8",
          "name": "tokenDecimals",
          "type": "uint8"
        }
      ],
      "stateMutability": "pure",
      "type": "function"
    },
    {
      "inputs": [],
      "name": "getTotalSupply",
      "outputs": [
        {
          "internalType": "uint256",
          "name": "",
          "type": "uint256"
        }
      ],
      "stateMutability": "pure",
      "type": "function"
    },
    {
      "inputs": [],
      "name": "name",
      "outputs": [
        {
          "internalType": "string",
          "name": "",
          "type": "string"
        }
      ],
      "stateMutability": "view",
      "type": "function"
    },
    {
      "inputs": [],
      "name": "symbol",
      "outputs": [
        {
          "internalType": "string",
          "name": "",
          "type": "string"
        }
      ],
      "stateMutability": "view",
      "type": "function"
    },
    {
      "inputs": [],
      "name": "totalSupply",
      "outputs": [
        {
          "internalType": "uint256",
          "name": "",
          "type": "uint256"
        }
      ],
      "stateMutability": "view",
      "type": "function"
    },
    {
      "inputs": [
        {
          "internalType": "address",
          "name": "to",
          "type": "address"
        },
        {
          "internalType": "uint256",
          "name": "value",
          "type": "uint256"
        }
      ],
      "name": "transfer",
      "outputs": [
        {
          "internalType": "bool",
          "name": "",
          "type": "bool"
        }
      ],
      "stateMutability": "nonpayable",
      "type": "function"
    },
    {
      "inputs": [
        {
          "internalType": "address",
          "name": "from",
          "type": "address"
        },
        {
          "internalType": "address",
          "name": "to",
          "type": "address"
        },
        {
          "internalType": "uint256",
          "name": "value",
          "type": "uint256"
        }
      ],
      "name": "transferFrom",
      "outputs": [
        {
          "internalType": "bool",
          "name": "",
          "type": "bool"
        }
      ],
      "stateMutability": "nonpayable",
      "type": "function"
    }
  ],
  "transactionHash": "0x57d7a2ad6e14145ce9ea8670c47904692a88235f0f7ae85e0f0101835ce3d300",
  "args": [],
  "numDeployments": 1,
  "solcInputHash": "ca1c0822d04d6b75fd515bdfdc9eb405",
  "bytecode": "0x60806040523480156200001157600080fd5b5060408051808201825260068082526512539515525560d21b6020808401829052845180860190955291845290830152906003620000508382620002dd565b5060046200005f8282620002dd565b5050506200007e3369d3c21bcecceda1000000620000c360201b60201c565b60405169d3c21bcecceda1000000815233907f816ade881d19fc5f04457d333605082d0daf88a57230804877c5f341c75feedb9060200160405180910390a2620003d1565b6001600160a01b038216620000f35760405163ec442f0560e01b8152600060048201526024015b60405180910390fd5b620001016000838362000105565b5050565b6001600160a01b03831662000134578060026000828254620001289190620003a9565b90915550620001a89050565b6001600160a01b03831660009081526020819052604090205481811015620001895760405163391434e360e21b81526001600160a01b03851660048201526024810182905260448101839052606401620000ea565b6001600160a01b03841660009081526020819052604090209082900390555b6001600160a01b038216620001c657600280548290039055620001e5565b6001600160a01b03821660009081526020819052604090208054820190555b816001600160a01b0316836001600160a01b03167fddf252ad1be2c89b69c2b068fc378daa952ba7f163c4a11628f55a4df523b3ef836040516200022b91815260200190565b60405180910390a3505050565b634e487b7160e01b600052604160045260246000fd5b600181811c908216806200026357607f821691505b6020821081036200028457634e487b7160e01b600052602260045260246000fd5b50919050565b601f821115620002d857600081815260208120601f850160051c81016020861015620002b35750805b601f850160051c820191505b81811015620002d457828155600101620002bf565b5050505b505050565b81516001600160401b03811115620002f957620002f962000238565b62000311816200030a84546200024e565b846200028a565b602080601f831160018114620003495760008415620003305750858301515b600019600386901b1c1916600185901b178555620002d4565b600085815260208120601f198616915b828110156200037a5788860151825594840194600190910190840162000359565b5085821015620003995787850151600019600388901b60f8161c191681555b5050505050600190811b01905550565b80820180821115620003cb57634e487b7160e01b600052601160045260246000fd5b92915050565b6107f580620003e16000396000f3fe608060405234801561001057600080fd5b50600436106100b45760003560e01c8063902d55a511610071578063902d55a51461015757806395d89b4114610168578063a9059cbb14610170578063abb1dc4414610183578063c4e41b22146101cb578063dd62ed3e146101db57600080fd5b806306fdde03146100b9578063095ea7b3146100d757806318160ddd146100fa57806323b872dd1461010c578063313ce5671461011f57806370a082311461012e575b600080fd5b6100c1610214565b6040516100ce919061063a565b60405180910390f35b6100ea6100e5366004610670565b6102a6565b60405190151581526020016100ce565b6002545b6040519081526020016100ce565b6100ea61011a36600461069a565b6102c0565b604051601281526020016100ce565b6100fe61013c3660046106d6565b6001600160a01b031660009081526020819052604090205490565b6100fe69d3c21bcecceda100000081565b6100c16102e4565b6100ea61017e366004610670565b6102f3565b60408051808201825260068082526512539515525560d21b60208084018290528451808601865292835282015291516100ce929069d3c21bcecceda1000000906012906106f1565b69d3c21bcecceda10000006100fe565b6100fe6101e9366004610731565b6001600160a01b03918216600090815260016020908152604080832093909416825291909152205490565b60606003805461022390610764565b80601f016020809104026020016040519081016040528092919081815260200182805461024f90610764565b801561029c5780601f106102715761010080835404028352916020019161029c565b820191906000526020600020905b81548152906001019060200180831161027f57829003601f168201915b5050505050905090565b6000336102b4818585610301565b60019150505b92915050565b6000336102ce858285610313565b6102d9858585610396565b506001949350505050565b60606004805461022390610764565b6000336102b4818585610396565b61030e83838360016103f5565b505050565b6001600160a01b038381166000908152600160209081526040808320938616835292905220546000198114610390578181101561038157604051637dc7a0d960e11b81526001600160a01b038416600482015260248101829052604481018390526064015b60405180910390fd5b610390848484840360006103f5565b50505050565b6001600160a01b0383166103c057604051634b637e8f60e11b815260006004820152602401610378565b6001600160a01b0382166103ea5760405163ec442f0560e01b815260006004820152602401610378565b61030e8383836104ca565b6001600160a01b03841661041f5760405163e602df0560e01b815260006004820152602401610378565b6001600160a01b03831661044957604051634a1406b160e11b815260006004820152602401610378565b6001600160a01b038085166000908152600160209081526040808320938716835292905220829055801561039057826001600160a01b0316846001600160a01b03167f8c5be1e5ebec7d5bd14f71427d1e84f3dd0314c0f7b2291e5b200ac8c7c3b925846040516104bc91815260200190565b60405180910390a350505050565b6001600160a01b0383166104f55780600260008282546104ea919061079e565b909155506105679050565b6001600160a01b038316600090815260208190526040902054818110156105485760405163391434e360e21b81526001600160a01b03851660048201526024810182905260448101839052606401610378565b6001600160a01b03841660009081526020819052604090209082900390555b6001600160a01b038216610583576002805482900390556105a2565b6001600160a01b03821660009081526020819052604090208054820190555b816001600160a01b0316836001600160a01b03167fddf252ad1be2c89b69c2b068fc378daa952ba7f163c4a11628f55a4df523b3ef836040516105e791815260200190565b60405180910390a3505050565b6000815180845260005b8181101561061a576020818501810151868301820152016105fe565b506000602082860101526020601f19601f83011685010191505092915050565b60208152600061064d60208301846105f4565b9392505050565b80356001600160a01b038116811461066b57600080fd5b919050565b6000806040838503121561068357600080fd5b61068c83610654565b946020939093013593505050565b6000806000606084860312156106af57600080fd5b6106b884610654565b92506106c660208501610654565b9150604084013590509250925092565b6000602082840312156106e857600080fd5b61064d82610654565b60808152600061070460808301876105f4565b828103602084015261071681876105f4565b91505083604083015260ff8316606083015295945050505050565b6000806040838503121561074457600080fd5b61074d83610654565b915061075b60208401610654565b90509250929050565b600181811c9082168061077857607f821691505b60208210810361079857634e487b7160e01b600052602260045260246000fd5b50919050565b808201808211156102ba57634e487b7160e01b600052601160045260246000fdfea264697066735822122008b6fe785273eb22d179294fde57515a1208e0586528db7a5f3810b22a8139c264736f6c63430008140033",
  "devdoc": {
    "details": "Professional ERC20 token with 1M fixed supply Native-style token for INTUITION Network DEX",
    "errors": {
      "ERC20InsufficientAllowance(address,uint256,uint256)": [
        {
          "details": "Indicates a failure with the `spender`s `allowance`. Used in transfers.",
          "params": {
            "allowance": "Amount of tokens a `spender` is allowed to operate with.",
            "needed": "Minimum amount required to perform a transfer.",
            "spender": "Address that may be allowed to operate on tokens without being their owner."
          }
        }
      ],
      "ERC20InsufficientBalance(address,uint256,uint256)": [
        {
          "details": "Indicates an error related to the current `balance` of a `sender`. Used in transfers.",
          "params": {
            "balance": "Current balance for the interacting account.",
            "needed": "Minimum amount required to perform a transfer.",
            "sender": "Address whose tokens are being transferred."
          }
        }
      ],
      "ERC20InvalidApprover(address)": [
        {
          "details": "Indicates a failure with the `approver` of a token to be approved. Used in approvals.",
          "params": {
            "approver": "Address initiating an approval operation."
          }
        }
      ],
      "ERC20InvalidReceiver(address)": [
        {
          "details": "Indicates a failure with the token `receiver`. Used in transfers.",
          "params": {
            "receiver": "Address to which tokens are being transferred."
          }
        }
      ],
      "ERC20InvalidSender(address)": [
        {
          "details": "Indicates a failure with the token `sender`. Used in transfers.",
          "params": {
            "sender": "Address whose tokens are being transferred."
          }
        }
      ],
      "ERC20InvalidSpender(address)": [
        {
          "details": "Indicates a failure with the `spender` to be approved. Used in approvals.",
          "params": {
            "spender": "Address that may be allowed to operate on tokens without being their owner."
          }
        }
      ]
    },
    "events": {
      "Approval(address,address,uint256)": {
        "details": "Emitted when the allowance of a `spender` for an `owner` is set by a call to {approve}. `value` is the new allowance."
      },
      "Transfer(address,address,uint256)": {
        "details": "Emitted when `value` tokens are moved from one account (`from`) to another (`to`). Note that `value` may be zero."
      }
    },
    "kind": "dev",
    "methods": {
      "allowance(address,address)": {
        "details": "See {IERC20-allowance}."
      },
      "approve(address,uint256)": {
        "details": "See {IERC20-approve}. NOTE: If `value` is the maximum `uint256`, the allowance is not updated on `transferFrom`. This is semantically equivalent to an infinite approval. Requirements: - `spender` cannot be the zero address."
      },
      "balanceOf(address)": {
        "details": "See {IERC20-balanceOf}."
      },
      "decimals()": {
        "details": "Returns the number of decimals used to get its user representation. For example, if `decimals` equals `2`, a balance of `505` tokens should be displayed to a user as `5.05` (`505 / 10 ** 2`). Tokens usually opt for a value of 18, imitating the relationship between Ether and Wei. This is the default value returned by this function, unless it's overridden. NOTE: This information is only used for _display_ purposes: it in no way affects any of the arithmetic of the contract, including {IERC20-balanceOf} and {IERC20-transfer}."
      },
      "getTokenInfo()": {
        "details": "Returns token information"
      },
      "getTotalSupply()": {
        "details": "Returns the total supply constant"
      },
      "name()": {
        "details": "Returns the name of the token."
      },
      "symbol()": {
        "details": "Returns the symbol of the token, usually a shorter version of the name."
      },
      "totalSupply()": {
        "details": "See {IERC20-totalSupply}."
      },
      "transfer(address,uint256)": {
        "details": "See {IERC20-transfer}. Requirements: - `to` cannot be the zero address. - the caller must have a balance of at least `value`."
      },
      "transferFrom(address,address,uint256)": {
        "details": "See {IERC20-transferFrom}. Emits an {Approval} event indicating the updated allowance. This is not required by the EIP. See the note at the beginning of {ERC20}. NOTE: Does not update the allowance if the current allowance is the maximum `uint256`. Requirements: - `from` and `to` cannot be the zero address. - `from` must have a balance of at least `value`. - the caller must have allowance for ``from``'s tokens of at least `value`."
      }
    },
    "title": "INTUIT Token",
    "version": 1
  },
  "userdoc": {
    "kind": "user",
    "methods": {},
    "version": 1
  },
  "storageLayout": {
    "storage": [
      {
        "astId": 159,
        "contract": "contracts/Intuit.sol:Intuit",
        "label": "_balances",
        "offset": 0,
        "slot": "0",
        "type": "t_mapping(t_address,t_uint256)"
      },
      {
        "astId": 165,
        "contract": "contracts/Intuit.sol:Intuit",
        "label": "_allowances",
        "offset": 0,
        "slot": "1",
        "type": "t_mapping(t_address,t_mapping(t_address,t_uint256))"
      },
      {
        "astId": 167,
        "contract": "contracts/Intuit.sol:Intuit",
        "label": "_totalSupply",
        "offset": 0,
        "slot": "2",
        "type": "t_uint256"
      },
      {
        "astId": 169,
        "contract": "contracts/Intuit.sol:Intuit",
        "label": "_name",
        "offset": 0,
        "slot": "3",
        "type": "t_string_storage"
      },
      {
        "astId": 171,
        "contract": "contracts/Intuit.sol:Intuit",
        "label": "_symbol",
        "offset": 0,
        "slot": "4",
        "type": "t_string_storage"
      }
    ],
    "types": {
      "t_address": {
        "encoding": "inplace",
        "label": "address",
        "numberOfBytes": "20"
      },
      "t_mapping(t_address,t_mapping(t_address,t_uint256))": {
        "encoding": "mapping",
        "key": "t_address",
        "label": "mapping(address => mapping(address => uint256))",
        "numberOfBytes": "32",
        "value": "t_mapping(t_address,t_uint256)"
      },
      "t_mapping(t_address,t_uint256)": {
        "encoding": "mapping",
        "key": "t_address",
        "label": "mapping(address => uint256)",
        "numberOfBytes": "32",
        "value": "t_uint256"
      },
      "t_string_storage": {
        "encoding": "bytes",
        "label": "string",
        "numberOfBytes": "32"
      },
      "t_uint256": {
        "encoding": "inplace",
        "label": "uint256",
        "numberOfBytes": "32"
      }
    }
  }
}